{"abi":[{"type":"constructor","inputs":[{"name":"wluxfhe","type":"address","internalType":"address"},{"name":"biddingTime","type":"uint256","internalType":"uint256"}],"stateMutability":"payable"},{"type":"function","name":"auctionEndTime","inputs":[],"outputs":[{"name":"","type":"uint256","internalType":"uint256"}],"stateMutability":"view"},{"type":"function","name":"auctioneer","inputs":[],"outputs":[{"name":"","type":"address","internalType":"address payable"}],"stateMutability":"view"},{"type":"function","name":"bid","inputs":[{"name":"amount","type":"tuple","internalType":"struct Euint32","components":[{"name":"ctHash","type":"uint256","internalType":"uint256"},{"name":"securityZone","type":"uint8","internalType":"uint8"},{"name":"utype","type":"uint8","internalType":"uint8"},{"name":"signature","type":"bytes","internalType":"bytes"}]}],"outputs":[],"stateMutability":"nonpayable"},{"type":"function","name":"debugEndAuction","inputs":[],"outputs":[],"stateMutability":"nonpayable"},{"type":"function","name":"eip712Domain","inputs":[],"outputs":[{"name":"fields","type":"bytes1","internalType":"bytes1"},{"name":"name","type":"string","internalType":"string"},{"name":"version","type":"string","internalType":"string"},{"name":"chainId","type":"uint256","internalType":"uint256"},{"name":"verifyingContract","type":"address","internalType":"address"},{"name":"salt","type":"bytes32","internalType":"bytes32"},{"name":"extensions","type":"uint256[]","internalType":"uint256[]"}],"stateMutability":"view"},{"type":"function","name":"endAuction","inputs":[],"outputs":[],"stateMutability":"nonpayable"},{"type":"function","name":"getMyBid","inputs":[{"name":"account","type":"address","internalType":"address"},{"name":"auth","type":"tuple","internalType":"struct Permission","components":[{"name":"publicKey","type":"bytes32","internalType":"bytes32"},{"name":"signature","type":"bytes","internalType":"bytes"}]}],"outputs":[{"name":"","type":"uint32","internalType":"uint32"}],"stateMutability":"view"},{"type":"function","name":"getMyBidDebug","inputs":[{"name":"account","type":"address","internalType":"address"}],"outputs":[{"name":"","type":"uint32","internalType":"uint32"}],"stateMutability":"view"},{"type":"function","name":"getWinner","inputs":[],"outputs":[{"name":"","type":"address","internalType":"address"}],"stateMutability":"view"},{"type":"function","name":"getWinningBid","inputs":[],"outputs":[{"name":"","type":"uint32","internalType":"uint32"},{"name":"","type":"address","internalType":"address"}],"stateMutability":"view"},{"type":"function","name":"redeemFunds","inputs":[],"outputs":[],"stateMutability":"nonpayable"},{"type":"function","name":"requestMyBidDecrypt","inputs":[{"name":"account","type":"address","internalType":"address"}],"outputs":[],"stateMutability":"nonpayable"},{"type":"function","name":"requestWinningBidDecrypt","inputs":[],"outputs":[],"stateMutability":"nonpayable"},{"type":"function","name":"winnerAddress","inputs":[],"outputs":[{"name":"","type":"address","internalType":"address"}],"stateMutability":"view"},{"type":"event","name":"AuctionEnded","inputs":[{"name":"winner","type":"address","indexed":false,"internalType":"address"},{"name":"bid","type":"uint32","indexed":false,"internalType":"uint32"}],"anonymous":false},{"type":"event","name":"EIP712DomainChanged","inputs":[],"anonymous":false},{"type":"error","name":"ECDSAInvalidSignature","inputs":[]},{"type":"error","name":"ECDSAInvalidSignatureLength","inputs":[{"name":"length","type":"uint256","internalType":"uint256"}]},{"type":"error","name":"ECDSAInvalidSignatureS","inputs":[{"name":"s","type":"bytes32","internalType":"bytes32"}]},{"type":"error","name":"InvalidShortString","inputs":[]},{"type":"error","name":"SecurityZoneOutOfBounds","inputs":[{"name":"value","type":"int32","internalType":"int32"}]},{"type":"error","name":"SignerNotMessageSender","inputs":[]},{"type":"error","name":"SignerNotOwner","inputs":[]},{"type":"error","name":"StringTooLong","inputs":[{"name":"str","type":"string","internalType":"string"}]}],"bytecode":{"object":"0x6101606040526040516147cb3803806147cb833981810160405281019061002691906106af565b6040518060400160405280601181526020017f4c7578464845205065726d697373696f6e0000000000000000000000000000008152506040518060400160405280600381526020017f312e3000000000000000000000000000000000000000000000000000000000008152506100a55f836102b760201b90919060201c565b61012081815250506100c16001826102b760201b90919060201c565b6101408181525050818051906020012060e08181525050808051906020012061010081815250504660a081815250506100fe61030460201b60201c565b608081815250503073ffffffffffffffffffffffffffffffffffffffff1660c08173ffffffffffffffffffffffffffffffffffffffff168152505050508160125f6101000a81548173ffffffffffffffffffffffffffffffffffffffff021916908373ffffffffffffffffffffffffffffffffffffffff1602179055503360025f6101000a81548173ffffffffffffffffffffffffffffffffffffffff021916908373ffffffffffffffffffffffffffffffffffffffff16021790555080426101c7919061071a565b6011819055506101dc5f61035e60201b60201c565b60048190555060045460058190555073ffffffffffffffffffffffffffffffffffffffff60135f6101000a81548173ffffffffffffffffffffffffffffffffffffffff021916908373ffffffffffffffffffffffffffffffffffffffff1602179055505f5f90505b60058110156102965760045460065f0182600581106102665761026561074d565b5b0181905550600454600b5f0182600581106102845761028361074d565b5b01819055508080600101915050610244565b506102aa63ffffffff61035e60201b60201c565b6010819055505050610e12565b5f6020835110156102d8576102d18361037660201b60201c565b90506102fe565b826102e8836103db60201b60201c565b5f0190816102f691906109ae565b5060ff5f1b90505b92915050565b5f7f8b73c3c69bb8fe3d512ecc4cf759cc79239f7b179b0ffacaa9a75d522b39400f60e051610100514630604051602001610343959493929190610ab3565b60405160208183030381529060405280519060200120905090565b5f61036f825f6103e460201b60201c565b9050919050565b5f5f829050601f815111156103c257826040517f305a27a90000000000000000000000000000000000000000000000000000000081526004016103b99190610b6a565b60405180910390fd5b8051816103ce90610bb7565b5f1c175f1b915050919050565b5f819050919050565b5f5f6103f88460048561040460201b60201c565b90508091505092915050565b5f73020000000000000000000000000000000000008073ffffffffffffffffffffffffffffffffffffffff16631888debd84601a5f67ffffffffffffffff81111561045257610451610784565b5b6040519080825280602002602001820160405280156104805781602001602082028036833780820191505090505b506104a3898960ff166104988a61050b60201b60201c565b61056260201b60201c565b6040518563ffffffff1660e01b81526004016104c29493929190610d62565b6020604051808303815f875af11580156104de573d5f5f3e3d5ffd5b505050506040513d601f19601f820116820180604052508101906105029190610db3565b90509392505050565b5f5f8260030b121561055457816040517f8f568bf800000000000000000000000000000000000000000000000000000000815260040161054b9190610df9565b60405180910390fd5b8163ffffffff169050919050565b60605f600367ffffffffffffffff8111156105805761057f610784565b5b6040519080825280602002602001820160405280156105ae5781602001602082028036833780820191505090505b50905084815f815181106105c5576105c461074d565b5b60200260200101818152505083816001815181106105e6576105e561074d565b5b60200260200101818152505082816002815181106106075761060661074d565b5b602002602001018181525050809150509392505050565b5f5ffd5b5f73ffffffffffffffffffffffffffffffffffffffff82169050919050565b5f61064b82610622565b9050919050565b61065b81610641565b8114610665575f5ffd5b50565b5f8151905061067681610652565b92915050565b5f819050919050565b61068e8161067c565b8114610698575f5ffd5b50565b5f815190506106a981610685565b92915050565b5f5f604083850312156106c5576106c461061e565b5b5f6106d285828601610668565b92505060206106e38582860161069b565b9150509250929050565b7f4e487b71000000000000000000000000000000000000000000000000000000005f52601160045260245ffd5b5f6107248261067c565b915061072f8361067c565b9250828201905080821115610747576107466106ed565b5b92915050565b7f4e487b71000000000000000000000000000000000000000000000000000000005f52603260045260245ffd5b5f81519050919050565b7f4e487b71000000000000000000000000000000000000000000000000000000005f52604160045260245ffd5b7f4e487b71000000000000000000000000000000000000000000000000000000005f52602260045260245ffd5b5f60028204905060018216806107f557607f821691505b602082108103610808576108076107b1565b5b50919050565b5f819050815f5260205f209050919050565b5f6020601f8301049050919050565b5f82821b905092915050565b5f6008830261086a7fffffffffffffffffffffffffffffffffffffffffffffffffffffffffffffffff8261082f565b610874868361082f565b95508019841693508086168417925050509392505050565b5f819050919050565b5f6108af6108aa6108a58461067c565b61088c565b61067c565b9050919050565b5f819050919050565b6108c883610895565b6108dc6108d4826108b6565b84845461083b565b825550505050565b5f5f905090565b6108f36108e4565b6108fe8184846108bf565b505050565b5b81811015610921576109165f826108eb565b600181019050610904565b5050565b601f821115610966576109378161080e565b61094084610820565b8101602085101561094f578190505b61096361095b85610820565b830182610903565b50505b505050565b5f82821c905092915050565b5f6109865f198460080261096b565b1980831691505092915050565b5f61099e8383610977565b9150826002028217905092915050565b6109b78261077a565b67ffffffffffffffff8111156109d0576109cf610784565b5b6109da82546107de565b6109e5828285610925565b5f60209050601f831160018114610a16575f8415610a04578287015190505b610a0e8582610993565b865550610a75565b601f198416610a248661080e565b5f5b82811015610a4b57848901518255600182019150602085019450602081019050610a26565b86831015610a685784890151610a64601f891682610977565b8355505b6001600288020188555050505b505050505050565b5f819050919050565b610a8f81610a7d565b82525050565b610a9e8161067c565b82525050565b610aad81610641565b82525050565b5f60a082019050610ac65f830188610a86565b610ad36020830187610a86565b610ae06040830186610a86565b610aed6060830185610a95565b610afa6080830184610aa4565b9695505050505050565b5f82825260208201905092915050565b8281835e5f83830152505050565b5f601f19601f8301169050919050565b5f610b3c8261077a565b610b468185610b04565b9350610b56818560208601610b14565b610b5f81610b22565b840191505092915050565b5f6020820190508181035f830152610b828184610b32565b905092915050565b5f81519050919050565b5f819050602082019050919050565b5f610bae8251610a7d565b80915050919050565b5f610bc182610b8a565b82610bcb84610b94565b9050610bd681610ba3565b92506020821015610c1657610c117fffffffffffffffffffffffffffffffffffffffffffffffffffffffffffffffff8360200360080261082f565b831692505b5050919050565b5f60ff82169050919050565b610c3281610c1d565b82525050565b7f4e487b71000000000000000000000000000000000000000000000000000000005f52602160045260245ffd5b60208110610c7657610c75610c38565b5b50565b5f819050610c8682610c65565b919050565b5f610c9582610c79565b9050919050565b610ca581610c8b565b82525050565b5f81519050919050565b5f82825260208201905092915050565b5f819050602082019050919050565b610cdd8161067c565b82525050565b5f610cee8383610cd4565b60208301905092915050565b5f602082019050919050565b5f610d1082610cab565b610d1a8185610cb5565b9350610d2583610cc5565b805f5b83811015610d55578151610d3c8882610ce3565b9750610d4783610cfa565b925050600181019050610d28565b5085935050505092915050565b5f608082019050610d755f830187610c29565b610d826020830186610c9c565b8181036040830152610d948185610d06565b90508181036060830152610da88184610d06565b905095945050505050565b5f60208284031215610dc857610dc761061e565b5b5f610dd58482850161069b565b91505092915050565b5f8160030b9050919050565b610df381610dde565b82525050565b5f602082019050610e0c5f830184610dea565b92915050565b60805160a05160c05160e051610100516101205161014051613968610e635f395f61172101525f6116e601525f6120d401525f6120b301525f6118e401525f61193a01525f61196301526139685ff3fe608060405234801561000f575f5ffd5b50600436106100e8575f3560e01c806384b0196e1161008a578063cdc7f6b111610064578063cdc7f6b1146101f0578063e6cd064b14610220578063ed7a4e0b1461023f578063fe67a54b1461025d576100e8565b806384b0196e146101a45780638e7ea5b2146101c857806394ce0e20146101e6576100e8565b806354646fea116100c657806354646fea146101445780635866740c1461016057806358cf24eb1461016a5780635ec2c7bf14610186576100e8565b8063216355ec146100ec5780632b9ca88b146100f65780634b449cba14610126575b5f5ffd5b6100f4610267565b005b610110600480360381019061010b9190612a67565b61054d565b60405161011d9190612adf565b60405180910390f35b61012e610671565b60405161013b9190612b10565b60405180910390f35b61015e60048036038101906101599190612b4b565b610677565b005b61016861086c565b005b610184600480360381019061017f9190612b92565b610908565b005b61018e610953565b60405161019b9190612bdd565b60405180910390f35b6101ac610978565b6040516101bf9796959493929190612d65565b60405180910390f35b6101d0610a1d565b6040516101dd9190612de7565b60405180910390f35b6101ee610ad4565b005b61020a60048036038101906102059190612b92565b610db6565b6040516102179190612adf565b60405180910390f35b610228610e06565b604051610236929190612e00565b60405180910390f35b610247610ecc565b6040516102549190612de7565b60405180910390f35b610265610ef1565b005b60145f9054906101000a900473ffffffffffffffffffffffffffffffffffffffff1673ffffffffffffffffffffffffffffffffffffffff163373ffffffffffffffffffffffffffffffffffffffff16036102f6576040517f08c379a00000000000000000000000000000000000000000000000000000000081526004016102ed90612e97565b60405180910390fd5b5f73ffffffffffffffffffffffffffffffffffffffff1660145f9054906101000a900473ffffffffffffffffffffffffffffffffffffffff1673ffffffffffffffffffffffffffffffffffffffff1603610385576040517f08c379a000000000000000000000000000000000000000000000000000000000815260040161037c90612eff565b60405180910390fd5b60035f3373ffffffffffffffffffffffffffffffffffffffff1673ffffffffffffffffffffffffffffffffffffffff1681526020019081526020015f206001015f9054906101000a900460ff1615610412576040517f08c379a000000000000000000000000000000000000000000000000000000000815260040161040990612f67565b60405180910390fd5b5f60035f3373ffffffffffffffffffffffffffffffffffffffff1673ffffffffffffffffffffffffffffffffffffffff1681526020019081526020015f205f01549050600160035f3373ffffffffffffffffffffffffffffffffffffffff1673ffffffffffffffffffffffffffffffffffffffff1681526020019081526020015f206001015f6101000a81548160ff02191690831515021790555060125f9054906101000a900473ffffffffffffffffffffffffffffffffffffffff1673ffffffffffffffffffffffffffffffffffffffff1663c4224c1933836040518363ffffffff1660e01b8152600401610509929190612fbe565b6020604051808303815f875af1158015610525573d5f5f3e3d5ffd5b505050506040513d601f19601f82011682018060405250810190610549919061300f565b5050565b5f81835f6105a57f6bdaeb2d29561f159c7ef98b16b27015fb2aeb87209c7ee656226d912f59927d845f015160405160200161058a92919061303a565b60405160208183030381529060405280519060200120611218565b90505f6105b6828560200151611231565b90508273ffffffffffffffffffffffffffffffffffffffff168173ffffffffffffffffffffffffffffffffffffffff161461061d576040517f51c65eae00000000000000000000000000000000000000000000000000000000815260040160405180910390fd5b61066560035f8973ffffffffffffffffffffffffffffffffffffffff1673ffffffffffffffffffffffffffffffffffffffff1681526020019081526020015f205f015461125b565b94505050505092915050565b60115481565b5f73ffffffffffffffffffffffffffffffffffffffff1660145f9054906101000a900473ffffffffffffffffffffffffffffffffffffffff1673ffffffffffffffffffffffffffffffffffffffff1614610706576040517f08c379a00000000000000000000000000000000000000000000000000000000081526004016106fd906130ab565b60405180910390fd5b5f60125f9054906101000a900473ffffffffffffffffffffffffffffffffffffffff1673ffffffffffffffffffffffffffffffffffffffff1663e1a136d53330856040518463ffffffff1660e01b815260040161076593929190613290565b6020604051808303815f875af1158015610781573d5f5f3e3d5ffd5b505050506040513d601f19601f820116820180604052508101906107a5919061300f565b90505f6107b2338361126c565b90505f6107c1826005546114c8565b90505f6107cd33611511565b90505f6107e56005548461161990919063ffffffff16565b905061084281600b6040518060200160405290815f8201600580602002604051908101604052809291908260058015610833576020028201915b81548152602001906001019080831161081f575b5050505050815250508461162c565b600b5f820151815f0190600561085992919061276c565b5090505082600581905550505050505050565b5f73ffffffffffffffffffffffffffffffffffffffff1660145f9054906101000a900473ffffffffffffffffffffffffffffffffffffffff1673ffffffffffffffffffffffffffffffffffffffff16036108fb576040517f08c379a00000000000000000000000000000000000000000000000000000000081526004016108f290612eff565b60405180910390fd5b6109066005546116b8565b565b61095060035f8373ffffffffffffffffffffffffffffffffffffffff1673ffffffffffffffffffffffffffffffffffffffff1681526020019081526020015f205f01546116b8565b50565b60025f9054906101000a900473ffffffffffffffffffffffffffffffffffffffff1681565b5f6060805f5f5f60606109896116de565b610991611718565b46305f5f1b5f67ffffffffffffffff8111156109b0576109af61289b565b5b6040519080825280602002602001820160405280156109de5781602001602082028036833780820191505090505b507f0f00000000000000000000000000000000000000000000000000000000000000959493929190965096509650965096509650965090919293949596565b5f5f73ffffffffffffffffffffffffffffffffffffffff1660145f9054906101000a900473ffffffffffffffffffffffffffffffffffffffff1673ffffffffffffffffffffffffffffffffffffffff1603610aad576040517f08c379a0000000000000000000000000000000000000000000000000000000008152600401610aa490612eff565b60405180910390fd5b60145f9054906101000a900473ffffffffffffffffffffffffffffffffffffffff16905090565b60025f9054906101000a900473ffffffffffffffffffffffffffffffffffffffff1673ffffffffffffffffffffffffffffffffffffffff163373ffffffffffffffffffffffffffffffffffffffff1614610b63576040517f08c379a0000000000000000000000000000000000000000000000000000000008152600401610b5a9061333c565b60405180910390fd5b5f73ffffffffffffffffffffffffffffffffffffffff1660145f9054906101000a900473ffffffffffffffffffffffffffffffffffffffff1673ffffffffffffffffffffffffffffffffffffffff1614610bf2576040517f08c379a0000000000000000000000000000000000000000000000000000000008152600401610be9906130ab565b60405180910390fd5b610c4b600b6040518060200160405290815f8201600580602002604051908101604052809291908260058015610c3d576020028201915b815481526020019060010190808311610c29575b505050505081525050611753565b60145f6101000a81548173ffffffffffffffffffffffffffffffffffffffff021916908373ffffffffffffffffffffffffffffffffffffffff1602179055505f73ffffffffffffffffffffffffffffffffffffffff1660145f9054906101000a900473ffffffffffffffffffffffffffffffffffffffff1673ffffffffffffffffffffffffffffffffffffffff1603610d405760135f9054906101000a900473ffffffffffffffffffffffffffffffffffffffff1660145f6101000a81548173ffffffffffffffffffffffffffffffffffffffff021916908373ffffffffffffffffffffffffffffffffffffffff1602179055505b610d4b6005546116b8565b5f610d5760055461125b565b90507f1c73b0ec6aabb0e49a3005f5ff668188d68c7c2c5fabe4686ec117562b51828160145f9054906101000a900473ffffffffffffffffffffffffffffffffffffffff1682604051610dab92919061335a565b60405180910390a150565b5f610dff60035f8473ffffffffffffffffffffffffffffffffffffffff1673ffffffffffffffffffffffffffffffffffffffff1681526020019081526020015f205f015461125b565b9050919050565b5f5f5f73ffffffffffffffffffffffffffffffffffffffff1660145f9054906101000a900473ffffffffffffffffffffffffffffffffffffffff1673ffffffffffffffffffffffffffffffffffffffff1603610e97576040517f08c379a0000000000000000000000000000000000000000000000000000000008152600401610e8e90612eff565b60405180910390fd5b610ea260055461125b565b60145f9054906101000a900473ffffffffffffffffffffffffffffffffffffffff16915091509091565b60145f9054906101000a900473ffffffffffffffffffffffffffffffffffffffff1681565b60025f9054906101000a900473ffffffffffffffffffffffffffffffffffffffff1673ffffffffffffffffffffffffffffffffffffffff163373ffffffffffffffffffffffffffffffffffffffff1614610f80576040517f08c379a0000000000000000000000000000000000000000000000000000000008152600401610f779061333c565b60405180910390fd5b601154421015610fc5576040517f08c379a0000000000000000000000000000000000000000000000000000000008152600401610fbc906133cb565b60405180910390fd5b5f73ffffffffffffffffffffffffffffffffffffffff1660145f9054906101000a900473ffffffffffffffffffffffffffffffffffffffff1673ffffffffffffffffffffffffffffffffffffffff1614611054576040517f08c379a000000000000000000000000000000000000000000000000000000000815260040161104b906130ab565b60405180910390fd5b6110ad600b6040518060200160405290815f820160058060200260405190810160405280929190826005801561109f576020028201915b81548152602001906001019080831161108b575b505050505081525050611753565b60145f6101000a81548173ffffffffffffffffffffffffffffffffffffffff021916908373ffffffffffffffffffffffffffffffffffffffff1602179055505f73ffffffffffffffffffffffffffffffffffffffff1660145f9054906101000a900473ffffffffffffffffffffffffffffffffffffffff1673ffffffffffffffffffffffffffffffffffffffff16036111a25760135f9054906101000a900473ffffffffffffffffffffffffffffffffffffffff1660145f6101000a81548173ffffffffffffffffffffffffffffffffffffffff021916908373ffffffffffffffffffffffffffffffffffffffff1602179055505b6111ad6005546116b8565b5f6111b960055461125b565b90507f1c73b0ec6aabb0e49a3005f5ff668188d68c7c2c5fabe4686ec117562b51828160145f9054906101000a900473ffffffffffffffffffffffffffffffffffffffff168260405161120d92919061335a565b60405180910390a150565b5f61122a6112246118e1565b83611997565b9050919050565b5f5f5f5f61123f86866119d7565b92509250925061124f8282611a2c565b82935050505092915050565b5f61126582611b8e565b9050919050565b5f6112b560035f8573ffffffffffffffffffffffffffffffffffffffff1673ffffffffffffffffffffffffffffffffffffffff1681526020019081526020015f205f0154611c22565b61138a576112c16127ac565b82815f0181815250505f8160200190151590811515815250508060035f8673ffffffffffffffffffffffffffffffffffffffff1673ffffffffffffffffffffffffffffffffffffffff1681526020019081526020015f205f820151815f01556020820151816001015f6101000a81548160ff02191690831515021790555090505060035f8573ffffffffffffffffffffffffffffffffffffffff1673ffffffffffffffffffffffffffffffffffffffff1681526020019081526020015f205f01549150506114c2565b5f6113df61139a60105485611c33565b60035f8773ffffffffffffffffffffffffffffffffffffffff1673ffffffffffffffffffffffffffffffffffffffff1681526020019081526020015f205f0154611c7c565b90505f6113ef8260045486611cc5565b905061143a60035f8773ffffffffffffffffffffffffffffffffffffffff1673ffffffffffffffffffffffffffffffffffffffff1681526020019081526020015f205f015482611d27565b60035f8773ffffffffffffffffffffffffffffffffffffffff1673ffffffffffffffffffffffffffffffffffffffff1681526020019081526020015f205f018190555060035f8673ffffffffffffffffffffffffffffffffffffffff1673ffffffffffffffffffffffffffffffffffffffff1681526020019081526020015f205f0154925050505b92915050565b5f6114d283611d70565b6114e2576114df5f611d81565b92505b6114eb82611d70565b6114fb576114f85f611d81565b91505b611509600484846017611d93565b905092915050565b6115196127c6565b5f8290505f73ffffffff00000000000000000000000000000000905061153d6127c6565b5f5f90505b600581101561160d575f6020826115599190613416565b90505f8173ffffffffffffffffffffffffffffffffffffffff168573ffffffffffffffffffffffffffffffffffffffff16901c90505f82608061159c9190613457565b73ffffffffffffffffffffffffffffffffffffffff1682881673ffffffffffffffffffffffffffffffffffffffff16901c90506115de8163ffffffff16611d81565b855f015185600581106115f4576115f361349e565b5b6020020181815250505050508080600101915050611542565b50809350505050919050565b5f6116248383611e82565b905092915050565b6116346127c6565b5f5f90505b60058110156116ad5761168185845f0151836005811061165c5761165b61349e565b5b6020020151865f015184600581106116775761167661349e565b5b6020020151611cc5565b845f015182600581106116975761169661349e565b5b6020020181815250508080600101915050611639565b508290509392505050565b6116c181611d70565b6116d1576116ce5f611d81565b90505b6116da81611ecb565b5050565b60606117135f7f0000000000000000000000000000000000000000000000000000000000000000611f5090919063ffffffff16565b905090565b606061174e60017f0000000000000000000000000000000000000000000000000000000000000000611f5090919063ffffffff16565b905090565b5f5f5f5f90505b600581101561179357611786845f0151826005811061177c5761177b61349e565b5b60200201516116b8565b808060010191505061175a565b505f5f90505b6005811015611875575f60208260046117b291906134cb565b6117bc9190613416565b90505f5f6117e3875f015185600581106117d9576117d861349e565b5b6020020151611ffd565b915063ffffffff1691508061182d576040517f08c379a000000000000000000000000000000000000000000000000000000000815260040161182490613548565b60405180910390fd5b5f8363ffffffff168363ffffffff1673ffffffffffffffffffffffffffffffffffffffff16901b905080866118629190613566565b9550505050508080600101915050611799565b505f602067ffffffffffffffff8111156118925761189161289b565b5b6040519080825280601f01601f1916602001820160405280156118c45781602001600182028036833780820191505090505b5090508160208201526118d881600c61201b565b92505050919050565b5f7f000000000000000000000000000000000000000000000000000000000000000073ffffffffffffffffffffffffffffffffffffffff163073ffffffffffffffffffffffffffffffffffffffff1614801561195c57507f000000000000000000000000000000000000000000000000000000000000000046145b15611989577f00000000000000000000000000000000000000000000000000000000000000009050611994565b61199161208f565b90505b90565b5f6040517f190100000000000000000000000000000000000000000000000000000000000081528360028201528260228201526042812091505092915050565b5f5f5f6041845103611a17575f5f5f602087015192506040870151915060608701515f1a9050611a0988828585612124565b955095509550505050611a25565b5f600285515f1b9250925092505b9250925092565b5f6003811115611a3f57611a3e6135ad565b5b826003811115611a5257611a516135ad565b5b0315611b8a5760016003811115611a6c57611a6b6135ad565b5b826003811115611a7f57611a7e6135ad565b5b03611ab6576040517ff645eedf00000000000000000000000000000000000000000000000000000000815260040160405180910390fd5b60026003811115611aca57611ac96135ad565b5b826003811115611add57611adc6135ad565b5b03611b2157805f1c6040517ffce698f7000000000000000000000000000000000000000000000000000000008152600401611b189190612b10565b60405180910390fd5b600380811115611b3457611b336135ad565b5b826003811115611b4757611b466135ad565b5b03611b8957806040517fd78bce0c000000000000000000000000000000000000000000000000000000008152600401611b8091906135da565b60405180910390fd5b5b5050565b5f73020000000000000000000000000000000000008073ffffffffffffffffffffffffffffffffffffffff1663f6bc7f3f836040518263ffffffff1660e01b8152600401611bdc9190612b10565b602060405180830381865afa158015611bf7573d5f5f3e3d5ffd5b505050506040513d601f19601f82011682018060405250810190611c1b9190613607565b9050919050565b5f611c2c82611d70565b9050919050565b5f611c3d83611d70565b611c4d57611c4a5f611d81565b92505b611c5682611d70565b611c6657611c635f611d81565b91505b611c74600484846007611d93565b905092915050565b5f611c8683611d70565b611c9657611c935f611d81565b92505b611c9f82611d70565b611caf57611cac5f611d81565b91505b611cbd600484846014611d93565b905092915050565b5f611ccf8461220b565b611cdf57611cdc5f61221c565b93505b611ce883611d70565b611cf857611cf55f611d81565b92505b611d0182611d70565b611d1157611d0e5f611d81565b91505b611d1e600485858561222e565b90509392505050565b5f611d3183611d70565b611d4157611d3e5f611d81565b92505b611d4a82611d70565b611d5a57611d575f611d81565b91505b611d68600484846008611d93565b905092915050565b5f611d7a8261231f565b9050919050565b5f611d8c825f61232b565b9050919050565b5f73020000000000000000000000000000000000008073ffffffffffffffffffffffffffffffffffffffff16631888debd8684611dd08888612345565b5f67ffffffffffffffff811115611dea57611de961289b565b5b604051908082528060200260200182016040528015611e185781602001602082028036833780820191505090505b506040518563ffffffff1660e01b8152600401611e389493929190613687565b6020604051808303815f875af1158015611e54573d5f5f3e3d5ffd5b505050506040513d601f19601f82011682018060405250810190611e789190613607565b9050949350505050565b5f611e8c83611d70565b611e9c57611e995f611d81565b92505b611ea582611d70565b611eb557611eb25f611d81565b91505b611ec3600484846015611d93565b905092915050565b5f73020000000000000000000000000000000000008073ffffffffffffffffffffffffffffffffffffffff16630828982783336040518363ffffffff1660e01b8152600401611f1b9291906136d8565b5f604051808303815f87803b158015611f32575f5ffd5b505af1158015611f44573d5f5f3e3d5ffd5b50505050819050919050565b606060ff5f1b8314611f6c57611f65836123df565b9050611ff7565b818054611f789061372c565b80601f0160208091040260200160405190810160405280929190818152602001828054611fa49061372c565b8015611fef5780601f10611fc657610100808354040283529160200191611fef565b820191905f5260205f20905b815481529060010190602001808311611fd257829003601f168201915b505050505090505b92915050565b5f5f5f5f61200a85612451565b915091508181935093505050915091565b5f601482612029919061375c565b8351101561206c576040517f08c379a0000000000000000000000000000000000000000000000000000000008152600401612063906137d9565b60405180910390fd5b5f6c01000000000000000000000000836020860101510490508091505092915050565b5f7f8b73c3c69bb8fe3d512ecc4cf759cc79239f7b179b0ffacaa9a75d522b39400f7f00000000000000000000000000000000000000000000000000000000000000007f000000000000000000000000000000000000000000000000000000000000000046306040516020016121099594939291906137f7565b60405160208183030381529060405280519060200120905090565b5f5f5f7f7fffffffffffffffffffffffffffffff5d576e7357a4501ddfe92f46681b20a0845f1c1115612160575f600385925092509250612201565b5f6001888888886040515f81526020016040526040516121839493929190613848565b6020604051602081039080840390855afa1580156121a3573d5f5f3e3d5ffd5b5050506020604051035190505f73ffffffffffffffffffffffffffffffffffffffff168173ffffffffffffffffffffffffffffffffffffffff16036121f4575f60015f5f1b93509350935050612201565b805f5f5f1b935093509350505b9450945094915050565b5f6122158261231f565b9050919050565b5f612227825f6124e7565b9050919050565b5f73020000000000000000000000000000000000008073ffffffffffffffffffffffffffffffffffffffff16631888debd86600461226d888888612510565b5f67ffffffffffffffff8111156122875761228661289b565b5b6040519080825280602002602001820160405280156122b55781602001602082028036833780820191505090505b506040518563ffffffff1660e01b81526004016122d59493929190613687565b6020604051808303815f875af11580156122f1573d5f5f3e3d5ffd5b505050506040513d601f19601f820116820180604052508101906123159190613607565b9050949350505050565b5f5f8214159050919050565b5f5f612339846004856125cc565b90508091505092915050565b60605f600267ffffffffffffffff8111156123635761236261289b565b5b6040519080825280602002602001820160405280156123915781602001602082028036833780820191505090505b50905083815f815181106123a8576123a761349e565b5b60200260200101818152505082816001815181106123c9576123c861349e565b5b6020026020010181815250508091505092915050565b60605f6123eb836126c7565b90505f602067ffffffffffffffff8111156124095761240861289b565b5b6040519080825280601f01601f19166020018201604052801561243b5781602001600182028036833780820191505090505b5090508181528360208201528092505050919050565b5f5f73020000000000000000000000000000000000008073ffffffffffffffffffffffffffffffffffffffff1663458693c9846040518263ffffffff1660e01b81526004016124a09190612b10565b6040805180830381865afa1580156124ba573d5f5f3e3d5ffd5b505050506040513d601f19601f820116820180604052508101906124de91906138c0565b91509150915091565b5f5f5f905083156124f757600190505b5f612503825f866125cc565b9050809250505092915050565b60605f600367ffffffffffffffff81111561252e5761252d61289b565b5b60405190808252806020026020018201604052801561255c5781602001602082028036833780820191505090505b50905084815f815181106125735761257261349e565b5b60200260200101818152505083816001815181106125945761259361349e565b5b60200260200101818152505082816002815181106125b5576125b461349e565b5b602002602001018181525050809150509392505050565b5f73020000000000000000000000000000000000008073ffffffffffffffffffffffffffffffffffffffff16631888debd84601a5f67ffffffffffffffff81111561261a5761261961289b565b5b6040519080825280602002602001820160405280156126485781602001602082028036833780820191505090505b5061265f898960ff1661265a8a612715565b612510565b6040518563ffffffff1660e01b815260040161267e9493929190613687565b6020604051808303815f875af115801561269a573d5f5f3e3d5ffd5b505050506040513d601f19601f820116820180604052508101906126be9190613607565b90509392505050565b5f5f60ff835f1c169050601f81111561270c576040517fb3512b0c00000000000000000000000000000000000000000000000000000000815260040160405180910390fd5b80915050919050565b5f5f8260030b121561275e57816040517f8f568bf80000000000000000000000000000000000000000000000000000000081526004016127559190613919565b60405180910390fd5b8163ffffffff169050919050565b826005810192821561279b579160200282015b8281111561279a57825182559160200191906001019061277f565b5b5090506127a891906127df565b5090565b60405180604001604052805f81526020015f151581525090565b60405180602001604052806127d96127fa565b81525090565b5b808211156127f6575f815f9055506001016127e0565b5090565b6040518060a00160405280600590602082028036833780820191505090505090565b5f604051905090565b5f5ffd5b5f5ffd5b5f73ffffffffffffffffffffffffffffffffffffffff82169050919050565b5f6128568261282d565b9050919050565b6128668161284c565b8114612870575f5ffd5b50565b5f813590506128818161285d565b92915050565b5f5ffd5b5f601f19601f8301169050919050565b7f4e487b71000000000000000000000000000000000000000000000000000000005f52604160045260245ffd5b6128d18261288b565b810181811067ffffffffffffffff821117156128f0576128ef61289b565b5b80604052505050565b5f61290261281c565b905061290e82826128c8565b919050565b5f5ffd5b5f819050919050565b61292981612917565b8114612933575f5ffd5b50565b5f8135905061294481612920565b92915050565b5f5ffd5b5f5ffd5b5f67ffffffffffffffff82111561296c5761296b61289b565b5b6129758261288b565b9050602081019050919050565b828183375f83830152505050565b5f6129a261299d84612952565b6128f9565b9050828152602081018484840111156129be576129bd61294e565b5b6129c9848285612982565b509392505050565b5f82601f8301126129e5576129e461294a565b5b81356129f5848260208601612990565b91505092915050565b5f60408284031215612a1357612a12612887565b5b612a1d60406128f9565b90505f612a2c84828501612936565b5f83015250602082013567ffffffffffffffff811115612a4f57612a4e612913565b5b612a5b848285016129d1565b60208301525092915050565b5f5f60408385031215612a7d57612a7c612825565b5b5f612a8a85828601612873565b925050602083013567ffffffffffffffff811115612aab57612aaa612829565b5b612ab7858286016129fe565b9150509250929050565b5f63ffffffff82169050919050565b612ad981612ac1565b82525050565b5f602082019050612af25f830184612ad0565b92915050565b5f819050919050565b612b0a81612af8565b82525050565b5f602082019050612b235f830184612b01565b92915050565b5f5ffd5b5f60808284031215612b4257612b41612b29565b5b81905092915050565b5f60208284031215612b6057612b5f612825565b5b5f82013567ffffffffffffffff811115612b7d57612b7c612829565b5b612b8984828501612b2d565b91505092915050565b5f60208284031215612ba757612ba6612825565b5b5f612bb484828501612873565b91505092915050565b5f612bc78261282d565b9050919050565b612bd781612bbd565b82525050565b5f602082019050612bf05f830184612bce565b92915050565b5f7fff0000000000000000000000000000000000000000000000000000000000000082169050919050565b612c2a81612bf6565b82525050565b5f81519050919050565b5f82825260208201905092915050565b8281835e5f83830152505050565b5f612c6282612c30565b612c6c8185612c3a565b9350612c7c818560208601612c4a565b612c858161288b565b840191505092915050565b612c998161284c565b82525050565b612ca881612917565b82525050565b5f81519050919050565b5f82825260208201905092915050565b5f819050602082019050919050565b612ce081612af8565b82525050565b5f612cf18383612cd7565b60208301905092915050565b5f602082019050919050565b5f612d1382612cae565b612d1d8185612cb8565b9350612d2883612cc8565b805f5b83811015612d58578151612d3f8882612ce6565b9750612d4a83612cfd565b925050600181019050612d2b565b5085935050505092915050565b5f60e082019050612d785f83018a612c21565b8181036020830152612d8a8189612c58565b90508181036040830152612d9e8188612c58565b9050612dad6060830187612b01565b612dba6080830186612c90565b612dc760a0830185612c9f565b81810360c0830152612dd98184612d09565b905098975050505050505050565b5f602082019050612dfa5f830184612c90565b92915050565b5f604082019050612e135f830185612ad0565b612e206020830184612c90565b9392505050565b7f57696e6e65722063616e6e6f7420706572666f726d207468697320616374696f5f8201527f6e00000000000000000000000000000000000000000000000000000000000000602082015250565b5f612e81602183612c3a565b9150612e8c82612e27565b604082019050919050565b5f6020820190508181035f830152612eae81612e75565b9050919050565b7f41756374696f6e20616c726561647920656e64656400000000000000000000005f82015250565b5f612ee9601583612c3a565b9150612ef482612eb5565b602082019050919050565b5f6020820190508181035f830152612f1681612edd565b9050919050565b7f416c726561647920726566756e646564000000000000000000000000000000005f82015250565b5f612f51601083612c3a565b9150612f5c82612f1d565b602082019050919050565b5f6020820190508181035f830152612f7e81612f45565b9050919050565b5f819050919050565b5f612fa8612fa3612f9e84612af8565b612f85565b612af8565b9050919050565b612fb881612f8e565b82525050565b5f604082019050612fd15f830185612c90565b612fde6020830184612faf565b9392505050565b612fee81612af8565b8114612ff8575f5ffd5b50565b5f8151905061300981612fe5565b92915050565b5f6020828403121561302457613023612825565b5b5f61303184828501612ffb565b91505092915050565b5f60408201905061304d5f830185612c9f565b61305a6020830184612c9f565b9392505050565b7f41756374696f6e206e6f7420656e6465640000000000000000000000000000005f82015250565b5f613095601183612c3a565b91506130a082613061565b602082019050919050565b5f6020820190508181035f8301526130c281613089565b9050919050565b6130d281612af8565b81146130dc575f5ffd5b50565b5f813590506130ed816130c9565b92915050565b5f61310160208401846130df565b905092915050565b5f60ff82169050919050565b61311e81613109565b8114613128575f5ffd5b50565b5f8135905061313981613115565b92915050565b5f61314d602084018461312b565b905092915050565b61315e81613109565b82525050565b5f5ffd5b5f5ffd5b5f5ffd5b5f5f8335600160200384360303811261318c5761318b61316c565b5b83810192508235915060208301925067ffffffffffffffff8211156131b4576131b3613164565b5b6001820236038313156131ca576131c9613168565b5b509250929050565b5f82825260208201905092915050565b5f6131ed83856131d2565b93506131fa838584612982565b6132038361288b565b840190509392505050565b5f6080830161321f5f8401846130f3565b61322b5f860182612cd7565b50613239602084018461313f565b6132466020860182613155565b50613254604084018461313f565b6132616040860182613155565b5061326f6060840184613170565b85830360608701526132828382846131e2565b925050508091505092915050565b5f6060820190506132a35f830186612c90565b6132b06020830185612c90565b81810360408301526132c2818461320e565b9050949350505050565b7f4f6e6c792061756374696f6e6565722063616e20706572666f726d20746869735f8201527f20616374696f6e00000000000000000000000000000000000000000000000000602082015250565b5f613326602783612c3a565b9150613331826132cc565b604082019050919050565b5f6020820190508181035f8301526133538161331a565b9050919050565b5f60408201905061336d5f830185612c90565b61337a6020830184612ad0565b9392505050565b7f41756374696f6e206f6e676f696e6700000000000000000000000000000000005f82015250565b5f6133b5600f83612c3a565b91506133c082613381565b602082019050919050565b5f6020820190508181035f8301526133e2816133a9565b9050919050565b7f4e487b71000000000000000000000000000000000000000000000000000000005f52601160045260245ffd5b5f61342082612af8565b915061342b83612af8565b925082820261343981612af8565b915082820484148315176134505761344f6133e9565b5b5092915050565b5f6134618261282d565b915061346c8361282d565b9250828203905073ffffffffffffffffffffffffffffffffffffffff811115613498576134976133e9565b5b92915050565b7f4e487b71000000000000000000000000000000000000000000000000000000005f52603260045260245ffd5b5f6134d582612af8565b91506134e083612af8565b92508282039050818111156134f8576134f76133e9565b5b92915050565b7f44656372797074206e6f742072656164790000000000000000000000000000005f82015250565b5f613532601183612c3a565b915061353d826134fe565b602082019050919050565b5f6020820190508181035f83015261355f81613526565b9050919050565b5f6135708261282d565b915061357b8361282d565b9250828201905073ffffffffffffffffffffffffffffffffffffffff8111156135a7576135a66133e9565b5b92915050565b7f4e487b71000000000000000000000000000000000000000000000000000000005f52602160045260245ffd5b5f6020820190506135ed5f830184612c9f565b92915050565b5f81519050613601816130c9565b92915050565b5f6020828403121561361c5761361b612825565b5b5f613629848285016135f3565b91505092915050565b61363b81613109565b82525050565b60208110613652576136516135ad565b5b50565b5f81905061366282613641565b919050565b5f61367182613655565b9050919050565b61368181613667565b82525050565b5f60808201905061369a5f830187613632565b6136a76020830186613678565b81810360408301526136b98185612d09565b905081810360608301526136cd8184612d09565b905095945050505050565b5f6040820190506136eb5f830185612b01565b6136f86020830184612c90565b9392505050565b7f4e487b71000000000000000000000000000000000000000000000000000000005f52602260045260245ffd5b5f600282049050600182168061374357607f821691505b602082108103613756576137556136ff565b5b50919050565b5f61376682612af8565b915061377183612af8565b9250828201905080821115613789576137886133e9565b5b92915050565b7f746f416464726573735f6f75744f66426f756e647300000000000000000000005f82015250565b5f6137c3601583612c3a565b91506137ce8261378f565b602082019050919050565b5f6020820190508181035f8301526137f0816137b7565b9050919050565b5f60a08201905061380a5f830188612c9f565b6138176020830187612c9f565b6138246040830186612c9f565b6138316060830185612b01565b61383e6080830184612c90565b9695505050505050565b5f60808201905061385b5f830187612c9f565b6138686020830186613632565b6138756040830185612c9f565b6138826060830184612c9f565b95945050505050565b5f8115159050919050565b61389f8161388b565b81146138a9575f5ffd5b50565b5f815190506138ba81613896565b92915050565b5f5f604083850312156138d6576138d5612825565b5b5f6138e3858286016135f3565b92505060206138f4858286016138ac565b9150509250929050565b5f8160030b9050919050565b613913816138fe565b82525050565b5f60208201905061392c5f83018461390a565b9291505056fea2646970667358221220d105c29bc9794cf25a8bd7500255092112cab5758d1e919285433121550d7eab64736f6c634300081b0033","linkReferences":{}},"methodIdentifiers":{"auctionEndTime()":"4b449cba","auctioneer()":"5ec2c7bf","bid((uint256,uint8,uint8,bytes))":"54646fea","debugEndAuction()":"94ce0e20","eip712Domain()":"84b0196e","endAuction()":"fe67a54b","getMyBid(address,(bytes32,bytes))":"2b9ca88b","getMyBidDebug(address)":"cdc7f6b1","getWinner()":"8e7ea5b2","getWinningBid()":"e6cd064b","redeemFunds()":"216355ec","requestMyBidDecrypt(address)":"58cf24eb","requestWinningBidDecrypt()":"5866740c","winnerAddress()":"ed7a4e0b"},"id":0}