{"abi":[{"type":"constructor","inputs":[{"name":"name","type":"string","internalType":"string"},{"name":"symbol","type":"string","internalType":"string"},{"name":"initialBalance","type":"uint256","internalType":"uint256"},{"name":"encryptedBalance","type":"tuple","internalType":"struct Euint32","components":[{"name":"ctHash","type":"uint256","internalType":"uint256"},{"name":"securityZone","type":"uint8","internalType":"uint8"},{"name":"utype","type":"uint8","internalType":"uint8"},{"name":"signature","type":"bytes","internalType":"bytes"}]}],"stateMutability":"nonpayable"},{"type":"function","name":"DEFAULT_ADMIN_ROLE","inputs":[],"outputs":[{"name":"","type":"bytes32","internalType":"bytes32"}],"stateMutability":"view"},{"type":"function","name":"MINTER_ROLE","inputs":[],"outputs":[{"name":"","type":"bytes32","internalType":"bytes32"}],"stateMutability":"view"},{"type":"function","name":"_allowanceEncrypted","inputs":[{"name":"owner","type":"address","internalType":"address"},{"name":"spender","type":"address","internalType":"address"}],"outputs":[{"name":"","type":"uint256","internalType":"euint32"}],"stateMutability":"view"},{"type":"function","name":"allowance","inputs":[{"name":"owner","type":"address","internalType":"address"},{"name":"spender","type":"address","internalType":"address"}],"outputs":[{"name":"","type":"uint256","internalType":"uint256"}],"stateMutability":"view"},{"type":"function","name":"allowanceEncrypted","inputs":[{"name":"spender","type":"address","internalType":"address"},{"name":"permission","type":"tuple","internalType":"struct Permission","components":[{"name":"publicKey","type":"bytes32","internalType":"bytes32"},{"name":"signature","type":"bytes","internalType":"bytes"}]}],"outputs":[{"name":"","type":"bytes","internalType":"bytes"}],"stateMutability":"view"},{"type":"function","name":"approve","inputs":[{"name":"spender","type":"address","internalType":"address"},{"name":"value","type":"uint256","internalType":"uint256"}],"outputs":[{"name":"","type":"bool","internalType":"bool"}],"stateMutability":"nonpayable"},{"type":"function","name":"approveEncrypted","inputs":[{"name":"spender","type":"address","internalType":"address"},{"name":"value","type":"tuple","internalType":"struct Euint32","components":[{"name":"ctHash","type":"uint256","internalType":"uint256"},{"name":"securityZone","type":"uint8","internalType":"uint8"},{"name":"utype","type":"uint8","internalType":"uint8"},{"name":"signature","type":"bytes","internalType":"bytes"}]}],"outputs":[{"name":"","type":"bool","internalType":"bool"}],"stateMutability":"nonpayable"},{"type":"function","name":"balanceOf","inputs":[{"name":"account","type":"address","internalType":"address"}],"outputs":[{"name":"","type":"uint256","internalType":"uint256"}],"stateMutability":"view"},{"type":"function","name":"balanceOfEncrypted","inputs":[{"name":"account","type":"address","internalType":"address"},{"name":"auth","type":"tuple","internalType":"struct Permission","components":[{"name":"publicKey","type":"bytes32","internalType":"bytes32"},{"name":"signature","type":"bytes","internalType":"bytes"}]}],"outputs":[{"name":"","type":"bytes","internalType":"bytes"}],"stateMutability":"view"},{"type":"function","name":"completeUnwrap","inputs":[{"name":"amount","type":"uint32","internalType":"uint32"}],"outputs":[],"stateMutability":"nonpayable"},{"type":"function","name":"decimals","inputs":[],"outputs":[{"name":"","type":"uint8","internalType":"uint8"}],"stateMutability":"view"},{"type":"function","name":"eip712Domain","inputs":[],"outputs":[{"name":"fields","type":"bytes1","internalType":"bytes1"},{"name":"name","type":"string","internalType":"string"},{"name":"version","type":"string","internalType":"string"},{"name":"chainId","type":"uint256","internalType":"uint256"},{"name":"verifyingContract","type":"address","internalType":"address"},{"name":"salt","type":"bytes32","internalType":"bytes32"},{"name":"extensions","type":"uint256[]","internalType":"uint256[]"}],"stateMutability":"view"},{"type":"function","name":"getRoleAdmin","inputs":[{"name":"role","type":"bytes32","internalType":"bytes32"}],"outputs":[{"name":"","type":"bytes32","internalType":"bytes32"}],"stateMutability":"view"},{"type":"function","name":"grantRole","inputs":[{"name":"role","type":"bytes32","internalType":"bytes32"},{"name":"account","type":"address","internalType":"address"}],"outputs":[],"stateMutability":"nonpayable"},{"type":"function","name":"hasRole","inputs":[{"name":"role","type":"bytes32","internalType":"bytes32"},{"name":"account","type":"address","internalType":"address"}],"outputs":[{"name":"","type":"bool","internalType":"bool"}],"stateMutability":"view"},{"type":"function","name":"mintEncrypted","inputs":[{"name":"recipient","type":"address","internalType":"address"},{"name":"amount","type":"tuple","internalType":"struct Euint32","components":[{"name":"ctHash","type":"uint256","internalType":"uint256"},{"name":"securityZone","type":"uint8","internalType":"uint8"},{"name":"utype","type":"uint8","internalType":"uint8"},{"name":"signature","type":"bytes","internalType":"bytes"}]}],"outputs":[],"stateMutability":"nonpayable"},{"type":"function","name":"mintEncryptedDebug","inputs":[{"name":"amount","type":"tuple","internalType":"struct Euint32","components":[{"name":"ctHash","type":"uint256","internalType":"uint256"},{"name":"securityZone","type":"uint8","internalType":"uint8"},{"name":"utype","type":"uint8","internalType":"uint8"},{"name":"signature","type":"bytes","internalType":"bytes"}]}],"outputs":[],"stateMutability":"nonpayable"},{"type":"function","name":"name","inputs":[],"outputs":[{"name":"","type":"string","internalType":"string"}],"stateMutability":"view"},{"type":"function","name":"renounceRole","inputs":[{"name":"role","type":"bytes32","internalType":"bytes32"},{"name":"callerConfirmation","type":"address","internalType":"address"}],"outputs":[],"stateMutability":"nonpayable"},{"type":"function","name":"requestUnwrap","inputs":[{"name":"amount","type":"uint32","internalType":"uint32"}],"outputs":[],"stateMutability":"nonpayable"},{"type":"function","name":"revokeRole","inputs":[{"name":"role","type":"bytes32","internalType":"bytes32"},{"name":"account","type":"address","internalType":"address"}],"outputs":[],"stateMutability":"nonpayable"},{"type":"function","name":"supportsInterface","inputs":[{"name":"interfaceId","type":"bytes4","internalType":"bytes4"}],"outputs":[{"name":"","type":"bool","internalType":"bool"}],"stateMutability":"view"},{"type":"function","name":"symbol","inputs":[],"outputs":[{"name":"","type":"string","internalType":"string"}],"stateMutability":"view"},{"type":"function","name":"totalSupply","inputs":[],"outputs":[{"name":"","type":"uint256","internalType":"uint256"}],"stateMutability":"view"},{"type":"function","name":"transfer","inputs":[{"name":"to","type":"address","internalType":"address"},{"name":"value","type":"uint256","internalType":"uint256"}],"outputs":[{"name":"","type":"bool","internalType":"bool"}],"stateMutability":"nonpayable"},{"type":"function","name":"transferEncrypted","inputs":[{"name":"to","type":"address","internalType":"address"},{"name":"amount","type":"uint256","internalType":"euint32"}],"outputs":[{"name":"","type":"uint256","internalType":"euint32"}],"stateMutability":"nonpayable"},{"type":"function","name":"transferEncrypted","inputs":[{"name":"to","type":"address","internalType":"address"},{"name":"encryptedAmount","type":"tuple","internalType":"struct Euint32","components":[{"name":"ctHash","type":"uint256","internalType":"uint256"},{"name":"securityZone","type":"uint8","internalType":"uint8"},{"name":"utype","type":"uint8","internalType":"uint8"},{"name":"signature","type":"bytes","internalType":"bytes"}]}],"outputs":[{"name":"","type":"uint256","internalType":"euint32"}],"stateMutability":"nonpayable"},{"type":"function","name":"transferFrom","inputs":[{"name":"from","type":"address","internalType":"address"},{"name":"to","type":"address","internalType":"address"},{"name":"value","type":"uint256","internalType":"uint256"}],"outputs":[{"name":"","type":"bool","internalType":"bool"}],"stateMutability":"nonpayable"},{"type":"function","name":"transferFromEncrypted","inputs":[{"name":"from","type":"address","internalType":"address"},{"name":"to","type":"address","internalType":"address"},{"name":"value","type":"uint256","internalType":"euint32"}],"outputs":[{"name":"","type":"uint256","internalType":"euint32"}],"stateMutability":"nonpayable"},{"type":"function","name":"transferFromEncrypted","inputs":[{"name":"from","type":"address","internalType":"address"},{"name":"to","type":"address","internalType":"address"},{"name":"value","type":"tuple","internalType":"struct Euint32","components":[{"name":"ctHash","type":"uint256","internalType":"uint256"},{"name":"securityZone","type":"uint8","internalType":"uint8"},{"name":"utype","type":"uint8","internalType":"uint8"},{"name":"signature","type":"bytes","internalType":"bytes"}]}],"outputs":[{"name":"","type":"uint256","internalType":"euint32"}],"stateMutability":"nonpayable"},{"type":"function","name":"unwrap","inputs":[{"name":"amount","type":"uint32","internalType":"uint32"}],"outputs":[],"stateMutability":"nonpayable"},{"type":"function","name":"wrap","inputs":[{"name":"amount","type":"uint32","internalType":"uint32"}],"outputs":[],"stateMutability":"nonpayable"},{"type":"event","name":"Approval","inputs":[{"name":"owner","type":"address","indexed":true,"internalType":"address"},{"name":"spender","type":"address","indexed":true,"internalType":"address"},{"name":"value","type":"uint256","indexed":false,"internalType":"uint256"}],"anonymous":false},{"type":"event","name":"ApprovalEncrypted","inputs":[{"name":"owner","type":"address","indexed":true,"internalType":"address"},{"name":"spender","type":"address","indexed":true,"internalType":"address"}],"anonymous":false},{"type":"event","name":"EIP712DomainChanged","inputs":[],"anonymous":false},{"type":"event","name":"RoleAdminChanged","inputs":[{"name":"role","type":"bytes32","indexed":true,"internalType":"bytes32"},{"name":"previousAdminRole","type":"bytes32","indexed":true,"internalType":"bytes32"},{"name":"newAdminRole","type":"bytes32","indexed":true,"internalType":"bytes32"}],"anonymous":false},{"type":"event","name":"RoleGranted","inputs":[{"name":"role","type":"bytes32","indexed":true,"internalType":"bytes32"},{"name":"account","type":"address","indexed":true,"internalType":"address"},{"name":"sender","type":"address","indexed":true,"internalType":"address"}],"anonymous":false},{"type":"event","name":"RoleRevoked","inputs":[{"name":"role","type":"bytes32","indexed":true,"internalType":"bytes32"},{"name":"account","type":"address","indexed":true,"internalType":"address"},{"name":"sender","type":"address","indexed":true,"internalType":"address"}],"anonymous":false},{"type":"event","name":"Transfer","inputs":[{"name":"from","type":"address","indexed":true,"internalType":"address"},{"name":"to","type":"address","indexed":true,"internalType":"address"},{"name":"value","type":"uint256","indexed":false,"internalType":"uint256"}],"anonymous":false},{"type":"event","name":"TransferEncrypted","inputs":[{"name":"from","type":"address","indexed":true,"internalType":"address"},{"name":"to","type":"address","indexed":true,"internalType":"address"}],"anonymous":false},{"type":"error","name":"AccessControlBadConfirmation","inputs":[]},{"type":"error","name":"AccessControlUnauthorizedAccount","inputs":[{"name":"account","type":"address","internalType":"address"},{"name":"neededRole","type":"bytes32","internalType":"bytes32"}]},{"type":"error","name":"ECDSAInvalidSignature","inputs":[]},{"type":"error","name":"ECDSAInvalidSignatureLength","inputs":[{"name":"length","type":"uint256","internalType":"uint256"}]},{"type":"error","name":"ECDSAInvalidSignatureS","inputs":[{"name":"s","type":"bytes32","internalType":"bytes32"}]},{"type":"error","name":"ERC20InsufficientAllowance","inputs":[{"name":"spender","type":"address","internalType":"address"},{"name":"allowance","type":"uint256","internalType":"uint256"},{"name":"needed","type":"uint256","internalType":"uint256"}]},{"type":"error","name":"ERC20InsufficientBalance","inputs":[{"name":"sender","type":"address","internalType":"address"},{"name":"balance","type":"uint256","internalType":"uint256"},{"name":"needed","type":"uint256","internalType":"uint256"}]},{"type":"error","name":"ERC20InvalidApprover","inputs":[{"name":"approver","type":"address","internalType":"address"}]},{"type":"error","name":"ERC20InvalidReceiver","inputs":[{"name":"receiver","type":"address","internalType":"address"}]},{"type":"error","name":"ERC20InvalidSender","inputs":[{"name":"sender","type":"address","internalType":"address"}]},{"type":"error","name":"ERC20InvalidSpender","inputs":[{"name":"spender","type":"address","internalType":"address"}]},{"type":"error","name":"ErrorInsufficientFunds","inputs":[]},{"type":"error","name":"InvalidEncryptedInput","inputs":[{"name":"got","type":"uint8","internalType":"uint8"},{"name":"expected","type":"uint8","internalType":"uint8"}]},{"type":"error","name":"InvalidShortString","inputs":[]},{"type":"error","name":"SecurityZoneOutOfBounds","inputs":[{"name":"value","type":"int32","internalType":"int32"}]},{"type":"error","name":"SignerNotMessageSender","inputs":[]},{"type":"error","name":"SignerNotOwner","inputs":[]},{"type":"error","name":"StringTooLong","inputs":[{"name":"str","type":"string","internalType":"string"}]}],"bytecode":{"object":"0x610160604052348015610010575f5ffd5b50604051615b7b380380615b7b8339818101604052810190610032919061108b565b83836040518060400160405280601181526020017f4c7578464845205065726d697373696f6e0000000000000000000000000000008152506040518060400160405280600381526020017f312e300000000000000000000000000000000000000000000000000000000000815250838381600390816100b1919061134a565b5080600490816100c1919061134a565b5050506100d86005836101df60201b90919060201c565b61012081815250506100f46006826101df60201b90919060201c565b6101408181525050818051906020012060e08181525050808051906020012061010081815250504660a0818152505061013161022c60201b60201c565b608081815250503073ffffffffffffffffffffffffffffffffffffffff1660c08173ffffffffffffffffffffffffffffffffffffffff1681525050505061017d5f61028660201b60201c565b6009819055505050610195338361029e60201b60201c565b6101a5338261032360201b60201c565b6101d57f9f2df0fed2c77648de5860a4cc508cd0818c85b8b8a1ab4ceeef8d981c8956a6336103e060201b60201c565b50505050506119b4565b5f602083511015610200576101f9836104d660201b60201c565b9050610226565b826102108361053b60201b60201c565b5f01908161021e919061134a565b5060ff5f1b90505b92915050565b5f7f8b73c3c69bb8fe3d512ecc4cf759cc79239f7b179b0ffacaa9a75d522b39400f60e05161010051463060405160200161026b95949392919061147f565b60405160208183030381529060405280519060200120905090565b5f610297825f61054460201b60201c565b9050919050565b5f73ffffffffffffffffffffffffffffffffffffffff168273ffffffffffffffffffffffffffffffffffffffff160361030e575f6040517fec442f0500000000000000000000000000000000000000000000000000000000815260040161030591906114d0565b60405180910390fd5b61031f5f838361056460201b60201c565b5050565b5f6103338261077d60201b60201c565b905061038260075f8573ffffffffffffffffffffffffffffffffffffffff1673ffffffffffffffffffffffffffffffffffffffff1681526020019081526020015f2054826107fc60201b60201c565b60075f8573ffffffffffffffffffffffffffffffffffffffff1673ffffffffffffffffffffffffffffffffffffffff1681526020019081526020015f20819055506103d5600954826107fc60201b60201c565b600981905550505050565b5f6103f1838361086360201b60201c565b6104cc576001600a5f8581526020019081526020015f205f015f8473ffffffffffffffffffffffffffffffffffffffff1673ffffffffffffffffffffffffffffffffffffffff1681526020019081526020015f205f6101000a81548160ff0219169083151502179055506104696108c760201b60201c565b73ffffffffffffffffffffffffffffffffffffffff168273ffffffffffffffffffffffffffffffffffffffff16847f2f8788117e7eff1d82e926ec794901d17c78024a50270940304540a733656f0d60405160405180910390a4600190506104d0565b5f90505b92915050565b5f5f829050601f8151111561052257826040517f305a27a90000000000000000000000000000000000000000000000000000000081526004016105199190611531565b60405180910390fd5b80518161052e9061157e565b5f1c175f1b915050919050565b5f819050919050565b5f5f610558846004856108ce60201b60201c565b90508091505092915050565b5f73ffffffffffffffffffffffffffffffffffffffff168373ffffffffffffffffffffffffffffffffffffffff16036105b4578060025f8282546105a89190611611565b92505081905550610682565b5f5f5f8573ffffffffffffffffffffffffffffffffffffffff1673ffffffffffffffffffffffffffffffffffffffff1681526020019081526020015f205490508181101561063d578381836040517fe450d38c00000000000000000000000000000000000000000000000000000000815260040161063493929190611644565b60405180910390fd5b8181035f5f8673ffffffffffffffffffffffffffffffffffffffff1673ffffffffffffffffffffffffffffffffffffffff1681526020019081526020015f2081905550505b5f73ffffffffffffffffffffffffffffffffffffffff168273ffffffffffffffffffffffffffffffffffffffff16036106c9578060025f8282540392505081905550610713565b805f5f8473ffffffffffffffffffffffffffffffffffffffff1673ffffffffffffffffffffffffffffffffffffffff1681526020019081526020015f205f82825401925050819055505b8173ffffffffffffffffffffffffffffffffffffffff168373ffffffffffffffffffffffffffffffffffffffff167fddf252ad1be2c89b69c2b068fc378daa952ba7f163c4a11628f55a4df523b3ef836040516107709190611679565b60405180910390a3505050565b5f5f600490508060ff16836040015160ff16146107d7578260400151816040517f67cf30710000000000000000000000000000000000000000000000000000000081526004016107ce9291906116a1565b60405180910390fd5b6107f46107e9846109d560201b60201c565b610a1760201b60201c565b915050919050565b5f61080c83610aae60201b60201c565b6108225761081f5f61028660201b60201c565b92505b61083182610aae60201b60201c565b610847576108445f61028660201b60201c565b91505b61085b600484846008610ac560201b60201c565b905092915050565b5f600a5f8481526020019081526020015f205f015f8373ffffffffffffffffffffffffffffffffffffffff1673ffffffffffffffffffffffffffffffffffffffff1681526020019081526020015f205f9054906101000a900460ff16905092915050565b5f33905090565b5f73020000000000000000000000000000000000008073ffffffffffffffffffffffffffffffffffffffff16631888debd84601a5f67ffffffffffffffff81111561091c5761091b610dc7565b5b60405190808252806020026020018201604052801561094a5781602001602082028036833780820191505090505b5061096d898960ff166109628a610bba60201b60201c565b610c1160201b60201c565b6040518563ffffffff1660e01b815260040161098c94939291906117f2565b6020604051808303815f875af11580156109a8573d5f5f3e3d5ffd5b505050506040513d601f19601f820116820180604052508101906109cc9190611843565b90509392505050565b6109dd610d73565b6040518060800160405280835f01518152602001836020015160ff168152602001600460ff16815260200183606001518152509050919050565b5f73020000000000000000000000000000000000008073ffffffffffffffffffffffffffffffffffffffff166327f9c76283336040518363ffffffff1660e01b8152600401610a67929190611925565b6020604051808303815f875af1158015610a83573d5f5f3e3d5ffd5b505050506040513d601f19601f82011682018060405250810190610aa79190611843565b9050919050565b5f610abe82610ccd60201b60201c565b9050919050565b5f73020000000000000000000000000000000000008073ffffffffffffffffffffffffffffffffffffffff16631888debd8684610b088888610cd960201b60201c565b5f67ffffffffffffffff811115610b2257610b21610dc7565b5b604051908082528060200260200182016040528015610b505781602001602082028036833780820191505090505b506040518563ffffffff1660e01b8152600401610b7094939291906117f2565b6020604051808303815f875af1158015610b8c573d5f5f3e3d5ffd5b505050506040513d601f19601f82011682018060405250810190610bb09190611843565b9050949350505050565b5f5f8260030b1215610c0357816040517f8f568bf8000000000000000000000000000000000000000000000000000000008152600401610bfa919061196e565b60405180910390fd5b8163ffffffff169050919050565b60605f600367ffffffffffffffff811115610c2f57610c2e610dc7565b5b604051908082528060200260200182016040528015610c5d5781602001602082028036833780820191505090505b50905084815f81518110610c7457610c73611987565b5b6020026020010181815250508381600181518110610c9557610c94611987565b5b6020026020010181815250508281600281518110610cb657610cb5611987565b5b602002602001018181525050809150509392505050565b5f5f8214159050919050565b60605f600267ffffffffffffffff811115610cf757610cf6610dc7565b5b604051908082528060200260200182016040528015610d255781602001602082028036833780820191505090505b50905083815f81518110610d3c57610d3b611987565b5b6020026020010181815250508281600181518110610d5d57610d5c611987565b5b6020026020010181815250508091505092915050565b60405180608001604052805f81526020015f60ff1681526020015f60ff168152602001606081525090565b5f604051905090565b5f5ffd5b5f5ffd5b5f5ffd5b5f5ffd5b5f601f19601f8301169050919050565b7f4e487b71000000000000000000000000000000000000000000000000000000005f52604160045260245ffd5b610dfd82610db7565b810181811067ffffffffffffffff82111715610e1c57610e1b610dc7565b5b80604052505050565b5f610e2e610d9e565b9050610e3a8282610df4565b919050565b5f67ffffffffffffffff821115610e5957610e58610dc7565b5b610e6282610db7565b9050602081019050919050565b8281835e5f83830152505050565b5f610e8f610e8a84610e3f565b610e25565b905082815260208101848484011115610eab57610eaa610db3565b5b610eb6848285610e6f565b509392505050565b5f82601f830112610ed257610ed1610daf565b5b8151610ee2848260208601610e7d565b91505092915050565b5f819050919050565b610efd81610eeb565b8114610f07575f5ffd5b50565b5f81519050610f1881610ef4565b92915050565b5f5ffd5b5f5ffd5b5f60ff82169050919050565b610f3b81610f26565b8114610f45575f5ffd5b50565b5f81519050610f5681610f32565b92915050565b5f67ffffffffffffffff821115610f7657610f75610dc7565b5b610f7f82610db7565b9050602081019050919050565b5f610f9e610f9984610f5c565b610e25565b905082815260208101848484011115610fba57610fb9610db3565b5b610fc5848285610e6f565b509392505050565b5f82601f830112610fe157610fe0610daf565b5b8151610ff1848260208601610f8c565b91505092915050565b5f6080828403121561100f5761100e610f1e565b5b6110196080610e25565b90505f61102884828501610f0a565b5f83015250602061103b84828501610f48565b602083015250604061104f84828501610f48565b604083015250606082015167ffffffffffffffff81111561107357611072610f22565b5b61107f84828501610fcd565b60608301525092915050565b5f5f5f5f608085870312156110a3576110a2610da7565b5b5f85015167ffffffffffffffff8111156110c0576110bf610dab565b5b6110cc87828801610ebe565b945050602085015167ffffffffffffffff8111156110ed576110ec610dab565b5b6110f987828801610ebe565b935050604061110a87828801610f0a565b925050606085015167ffffffffffffffff81111561112b5761112a610dab565b5b61113787828801610ffa565b91505092959194509250565b5f81519050919050565b7f4e487b71000000000000000000000000000000000000000000000000000000005f52602260045260245ffd5b5f600282049050600182168061119157607f821691505b6020821081036111a4576111a361114d565b5b50919050565b5f819050815f5260205f209050919050565b5f6020601f8301049050919050565b5f82821b905092915050565b5f600883026112067fffffffffffffffffffffffffffffffffffffffffffffffffffffffffffffffff826111cb565b61121086836111cb565b95508019841693508086168417925050509392505050565b5f819050919050565b5f61124b61124661124184610eeb565b611228565b610eeb565b9050919050565b5f819050919050565b61126483611231565b61127861127082611252565b8484546111d7565b825550505050565b5f5f905090565b61128f611280565b61129a81848461125b565b505050565b5b818110156112bd576112b25f82611287565b6001810190506112a0565b5050565b601f821115611302576112d3816111aa565b6112dc846111bc565b810160208510156112eb578190505b6112ff6112f7856111bc565b83018261129f565b50505b505050565b5f82821c905092915050565b5f6113225f1984600802611307565b1980831691505092915050565b5f61133a8383611313565b9150826002028217905092915050565b61135382611143565b67ffffffffffffffff81111561136c5761136b610dc7565b5b611376825461117a565b6113818282856112c1565b5f60209050601f8311600181146113b2575f84156113a0578287015190505b6113aa858261132f565b865550611411565b601f1984166113c0866111aa565b5f5b828110156113e7578489015182556001820191506020850194506020810190506113c2565b868310156114045784890151611400601f891682611313565b8355505b6001600288020188555050505b505050505050565b5f819050919050565b61142b81611419565b82525050565b61143a81610eeb565b82525050565b5f73ffffffffffffffffffffffffffffffffffffffff82169050919050565b5f61146982611440565b9050919050565b6114798161145f565b82525050565b5f60a0820190506114925f830188611422565b61149f6020830187611422565b6114ac6040830186611422565b6114b96060830185611431565b6114c66080830184611470565b9695505050505050565b5f6020820190506114e35f830184611470565b92915050565b5f82825260208201905092915050565b5f61150382611143565b61150d81856114e9565b935061151d818560208601610e6f565b61152681610db7565b840191505092915050565b5f6020820190508181035f83015261154981846114f9565b905092915050565b5f81519050919050565b5f819050602082019050919050565b5f6115758251611419565b80915050919050565b5f61158882611551565b826115928461155b565b905061159d8161156a565b925060208210156115dd576115d87fffffffffffffffffffffffffffffffffffffffffffffffffffffffffffffffff836020036008026111cb565b831692505b5050919050565b7f4e487b71000000000000000000000000000000000000000000000000000000005f52601160045260245ffd5b5f61161b82610eeb565b915061162683610eeb565b925082820190508082111561163e5761163d6115e4565b5b92915050565b5f6060820190506116575f830186611470565b6116646020830185611431565b6116716040830184611431565b949350505050565b5f60208201905061168c5f830184611431565b92915050565b61169b81610f26565b82525050565b5f6040820190506116b45f830185611692565b6116c16020830184611692565b9392505050565b7f4e487b71000000000000000000000000000000000000000000000000000000005f52602160045260245ffd5b60208110611706576117056116c8565b5b50565b5f819050611716826116f5565b919050565b5f61172582611709565b9050919050565b6117358161171b565b82525050565b5f81519050919050565b5f82825260208201905092915050565b5f819050602082019050919050565b61176d81610eeb565b82525050565b5f61177e8383611764565b60208301905092915050565b5f602082019050919050565b5f6117a08261173b565b6117aa8185611745565b93506117b583611755565b805f5b838110156117e55781516117cc8882611773565b97506117d78361178a565b9250506001810190506117b8565b5085935050505092915050565b5f6080820190506118055f830187611692565b611812602083018661172c565b81810360408301526118248185611796565b905081810360608301526118388184611796565b905095945050505050565b5f6020828403121561185857611857610da7565b5b5f61186584828501610f0a565b91505092915050565b61187781610f26565b82525050565b5f82825260208201905092915050565b5f61189782611551565b6118a1818561187d565b93506118b1818560208601610e6f565b6118ba81610db7565b840191505092915050565b5f608083015f8301516118da5f860182611764565b5060208301516118ed602086018261186e565b506040830151611900604086018261186e565b5060608301518482036060860152611918828261188d565b9150508091505092915050565b5f6040820190508181035f83015261193d81856118c5565b905061194c6020830184611470565b9392505050565b5f8160030b9050919050565b61196881611953565b82525050565b5f6020820190506119815f83018461195f565b92915050565b7f4e487b71000000000000000000000000000000000000000000000000000000005f52603260045260245ffd5b60805160a05160c05160e051610100516101205161014051614176611a055f395f611c2e01525f611bf301525f612deb01525f612dca01525f6125d901525f61262f01525f61265801526141765ff3fe608060405234801561000f575f5ffd5b50600436106101ee575f3560e01c80636e0505e11161010d578063af575a00116100a0578063dd62ed3e1161006f578063dd62ed3e1461061a578063e1a136d51461064a578063e83c3af71461067a578063fe229cbe14610696576101ee565b8063af575a0014610580578063c4224c19146105b0578063d5391393146105e0578063d547741f146105fe576101ee565b806395d89b41116100dc57806395d89b41146104f85780639f284be714610516578063a217fddf14610532578063a9059cbb14610550576101ee565b80636e0505e11461045857806370a082311461047457806384b0196e146104a457806391d14854146104c8576101ee565b8063248a9ca3116101855780635356c429116101545780635356c429146103ac5780635b6c6b3e146103dc57806360277204146103f857806363c05a3314610428576101ee565b8063248a9ca3146103265780632f2ff15d14610356578063313ce5671461037257806336568abe14610390576101ee565b806318160ddd116101c157806318160ddd1461028c5780631be32e2d146102aa57806323b872dd146102c657806323db9354146102f6576101ee565b806301ffc9a7146101f257806306fdde0314610222578063095548f314610240578063095ea7b31461025c575b5f5ffd5b61020c600480360381019061020791906130ca565b6106c6565b604051610219919061310f565b60405180910390f35b61022a61073f565b6040516102379190613198565b60405180910390f35b61025a600480360381019061025591906131f1565b6107cf565b005b610276600480360381019061027191906132a9565b61085f565b604051610283919061310f565b60405180910390f35b610294610881565b6040516102a191906132f6565b60405180910390f35b6102c460048036038101906102bf919061350a565b61088a565b005b6102e060048036038101906102db9190613551565b610897565b6040516102ed919061310f565b60405180910390f35b610310600480360381019061030b91906135a1565b6108c5565b60405161031d9190613618565b60405180910390f35b610340600480360381019061033b9190613664565b610947565b60405161034d919061369e565b60405180910390f35b610370600480360381019061036b91906136b7565b610964565b005b61037a610986565b6040516103879190613704565b60405180910390f35b6103aa60048036038101906103a591906136b7565b61098e565b005b6103c660048036038101906103c1919061373f565b610a09565b6040516103d391906137eb565b60405180910390f35b6103f660048036038101906103f1919061380b565b610b03565b005b610412600480360381019061040d91906138ce565b610b41565b60405161041f91906137eb565b60405180910390f35b610442600480360381019061043d9190613946565b610c68565b60405161044f919061310f565b60405180910390f35b610472600480360381019061046d91906131f1565b610c8f565b005b61048e600480360381019061048991906139a0565b610dc2565b60405161049b91906132f6565b60405180910390f35b6104ac610e07565b6040516104bf9796959493929190613acb565b60405180910390f35b6104e260048036038101906104dd91906136b7565b610eac565b6040516104ef919061310f565b60405180910390f35b610500610f10565b60405161050d9190613198565b60405180910390f35b610530600480360381019061052b91906131f1565b610fa0565b005b61053a6110a8565b604051610547919061369e565b60405180910390f35b61056a600480360381019061056591906132a9565b6110ae565b604051610577919061310f565b60405180910390f35b61059a60048036038101906105959190613b77565b6110d0565b6040516105a79190613618565b60405180910390f35b6105ca60048036038101906105c59190613bc7565b6110fb565b6040516105d79190613618565b60405180910390f35b6105e861110f565b6040516105f5919061369e565b60405180910390f35b610618600480360381019061061391906136b7565b611133565b005b610634600480360381019061062f91906135a1565b611155565b60405161064191906132f6565b60405180910390f35b610664600480360381019061065f9190613c05565b6111d7565b6040516106719190613618565b60405180910390f35b610694600480360381019061068f91906131f1565b611213565b005b6106b060048036038101906106ab9190613946565b611329565b6040516106bd9190613618565b60405180910390f35b5f7f7965db0b000000000000000000000000000000000000000000000000000000007bffffffffffffffffffffffffffffffffffffffffffffffffffffffff1916827bffffffffffffffffffffffffffffffffffffffffffffffffffffffff1916148061073857506107378261134d565b5b9050919050565b60606003805461074e90613c9e565b80601f016020809104026020016040519081016040528092919081815260200182805461077a90613c9e565b80156107c55780601f1061079c576101008083540402835291602001916107c5565b820191905f5260205f20905b8154815290600101906020018083116107a857829003601f168201915b5050505050905090565b5f6107df8263ffffffff166113b6565b90505f61083b61082c60075f3373ffffffffffffffffffffffffffffffffffffffff1673ffffffffffffffffffffffffffffffffffffffff1681526020019081526020015f2054846113c8565b6108355f6113b6565b84611411565b90505f61084782611473565b9050610859338263ffffffff16611484565b50505050565b5f5f610869611503565b905061087681858561150a565b600191505092915050565b5f600254905090565b610894338261151c565b50565b5f5f6108a1611503565b90506108ae8582856115c7565b6108b985858561165a565b60019150509392505050565b5f60085f8473ffffffffffffffffffffffffffffffffffffffff1673ffffffffffffffffffffffffffffffffffffffff1681526020019081526020015f205f8373ffffffffffffffffffffffffffffffffffffffff1673ffffffffffffffffffffffffffffffffffffffff1681526020019081526020015f2054905092915050565b5f600a5f8381526020019081526020015f20600101549050919050565b61096d82610947565b6109768161174a565b610980838361175e565b50505050565b5f6012905090565b610996611503565b73ffffffffffffffffffffffffffffffffffffffff168173ffffffffffffffffffffffffffffffffffffffff16146109fa576040517f6697b23200000000000000000000000000000000000000000000000000000000815260040160405180910390fd5b610a048282611848565b505050565b606081610a1590613cce565b5f610a6a7f6bdaeb2d29561f159c7ef98b16b27015fb2aeb87209c7ee656226d912f59927d835f0151604051602001610a4f929190613ce0565b60405160208183030381529060405280519060200120611932565b90505f610a7b82846020015161194b565b90503373ffffffffffffffffffffffffffffffffffffffff168173ffffffffffffffffffffffffffffffffffffffff1614610ae2576040517f3093a27700000000000000000000000000000000000000000000000000000000815260040160405180910390fd5b610af8610aef33886108c5565b865f0135611975565b935050505092915050565b610b2d7f9f2df0fed2c77648de5860a4cc508cd0818c85b8b8a1ab4ceeef8d981c8956a633610eac565b15610b3d57610b3c828261151c565b5b5050565b606081835f610b9a7f6bdaeb2d29561f159c7ef98b16b27015fb2aeb87209c7ee656226d912f59927d845f0151604051602001610b7f929190613ce0565b60405160208183030381529060405280519060200120611932565b90505f610bab82856020015161194b565b90508273ffffffffffffffffffffffffffffffffffffffff168173ffffffffffffffffffffffffffffffffffffffff1614610c12576040517f51c65eae00000000000000000000000000000000000000000000000000000000815260040160405180910390fd5b610c5c60075f8973ffffffffffffffffffffffffffffffffffffffff1673ffffffffffffffffffffffffffffffffffffffff1681526020019081526020015f2054875f0151611975565b94505050505092915050565b5f610c853384610c8085610c7b90613d07565b6119a6565b611a19565b6001905092915050565b5f610c9f8263ffffffff166113b6565b90505f610cfb610cec60075f3373ffffffffffffffffffffffffffffffffffffffff1673ffffffffffffffffffffffffffffffffffffffff1681526020019081526020015f2054846113c8565b610cf55f6113b6565b84611411565b9050610d4460075f3373ffffffffffffffffffffffffffffffffffffffff1673ffffffffffffffffffffffffffffffffffffffff1681526020019081526020015f205482611b7b565b60075f3373ffffffffffffffffffffffffffffffffffffffff1673ffffffffffffffffffffffffffffffffffffffff1681526020019081526020015f2081905550610d9160095482611b7b565b600981905550610da081611bc4565b5f610daa82611473565b9050610dbc338263ffffffff16611484565b50505050565b5f5f5f8373ffffffffffffffffffffffffffffffffffffffff1673ffffffffffffffffffffffffffffffffffffffff1681526020019081526020015f20549050919050565b5f6060805f5f5f6060610e18611bea565b610e20611c25565b46305f5f1b5f67ffffffffffffffff811115610e3f57610e3e613313565b5b604051908082528060200260200182016040528015610e6d5781602001602082028036833780820191505090505b507f0f00000000000000000000000000000000000000000000000000000000000000959493929190965096509650965096509650965090919293949596565b5f600a5f8481526020019081526020015f205f015f8373ffffffffffffffffffffffffffffffffffffffff1673ffffffffffffffffffffffffffffffffffffffff1681526020019081526020015f205f9054906101000a900460ff16905092915050565b606060048054610f1f90613c9e565b80601f0160208091040260200160405190810160405280929190818152602001828054610f4b90613c9e565b8015610f965780601f10610f6d57610100808354040283529160200191610f96565b820191905f5260205f20905b815481529060010190602001808311610f7957829003601f168201915b5050505050905090565b8063ffffffff16610fb033610dc2565b1015610fe8576040517ffda7bbda00000000000000000000000000000000000000000000000000000000815260040160405180910390fd5b610ff8338263ffffffff16611c60565b5f6110088263ffffffff166113b6565b905061105160075f3373ffffffffffffffffffffffffffffffffffffffff1673ffffffffffffffffffffffffffffffffffffffff1681526020019081526020015f205482611cdf565b60075f3373ffffffffffffffffffffffffffffffffffffffff1673ffffffffffffffffffffffffffffffffffffffff1681526020019081526020015f208190555061109e60095482611cdf565b6009819055505050565b5f5f1b81565b5f5f6110b8611503565b90506110c581858561165a565b600191505092915050565b5f5f8290505f6110e1863384611d28565b90506110ee868683611d63565b5080925050509392505050565b5f611107338484611d63565b905092915050565b7f9f2df0fed2c77648de5860a4cc508cd0818c85b8b8a1ab4ceeef8d981c8956a681565b61113c82610947565b6111458161174a565b61114f8383611848565b50505050565b5f60015f8473ffffffffffffffffffffffffffffffffffffffff1673ffffffffffffffffffffffffffffffffffffffff1681526020019081526020015f205f8373ffffffffffffffffffffffffffffffffffffffff1673ffffffffffffffffffffffffffffffffffffffff1681526020019081526020015f2054905092915050565b5f5f6111eb836111e690613d07565b6119a6565b90505f6111f9863384611d28565b9050611206868683611d63565b5080925050509392505050565b5f6112238263ffffffff166113b6565b90505f61127f61127060075f3373ffffffffffffffffffffffffffffffffffffffff1673ffffffffffffffffffffffffffffffffffffffff1681526020019081526020015f2054846113c8565b6112795f6113b6565b84611411565b90506112c860075f3373ffffffffffffffffffffffffffffffffffffffff1673ffffffffffffffffffffffffffffffffffffffff1681526020019081526020015f205482611b7b565b60075f3373ffffffffffffffffffffffffffffffffffffffff1673ffffffffffffffffffffffffffffffffffffffff1681526020019081526020015f208190555061131560095482611b7b565b60098190555061132481611bc4565b505050565b5f611345836113408461133b90613d07565b6119a6565b6110fb565b905092915050565b5f7f01ffc9a7000000000000000000000000000000000000000000000000000000007bffffffffffffffffffffffffffffffffffffffffffffffffffffffff1916827bffffffffffffffffffffffffffffffffffffffffffffffffffffffff1916149050919050565b5f6113c1825f611edb565b9050919050565b5f6113d283611ef5565b6113e2576113df5f6113b6565b92505b6113eb82611ef5565b6113fb576113f85f6113b6565b91505b611409600484846015611f06565b905092915050565b5f61141b84611ff5565b61142b576114285f612006565b93505b61143483611ef5565b611444576114415f6113b6565b92505b61144d82611ef5565b61145d5761145a5f6113b6565b91505b61146a6004858585612018565b90509392505050565b5f61147d82612109565b9050919050565b5f73ffffffffffffffffffffffffffffffffffffffff168273ffffffffffffffffffffffffffffffffffffffff16036114f4575f6040517fec442f050000000000000000000000000000000000000000000000000000000081526004016114eb9190613d19565b60405180910390fd5b6114ff5f838361219d565b5050565b5f33905090565b61151783838360016123b6565b505050565b5f611526826119a6565b905061156f60075f8573ffffffffffffffffffffffffffffffffffffffff1673ffffffffffffffffffffffffffffffffffffffff1681526020019081526020015f205482611cdf565b60075f8573ffffffffffffffffffffffffffffffffffffffff1673ffffffffffffffffffffffffffffffffffffffff1681526020019081526020015f20819055506115bc60095482611cdf565b600981905550505050565b5f6115d28484611155565b90507fffffffffffffffffffffffffffffffffffffffffffffffffffffffffffffffff8110156116545781811015611645578281836040517ffb8f41b200000000000000000000000000000000000000000000000000000000815260040161163c93929190613d32565b60405180910390fd5b61165384848484035f6123b6565b5b50505050565b5f73ffffffffffffffffffffffffffffffffffffffff168373ffffffffffffffffffffffffffffffffffffffff16036116ca575f6040517f96c6fd1e0000000000000000000000000000000000000000000000000000000081526004016116c19190613d19565b60405180910390fd5b5f73ffffffffffffffffffffffffffffffffffffffff168273ffffffffffffffffffffffffffffffffffffffff160361173a575f6040517fec442f050000000000000000000000000000000000000000000000000000000081526004016117319190613d19565b60405180910390fd5b61174583838361219d565b505050565b61175b81611756611503565b612585565b50565b5f6117698383610eac565b61183e576001600a5f8581526020019081526020015f205f015f8473ffffffffffffffffffffffffffffffffffffffff1673ffffffffffffffffffffffffffffffffffffffff1681526020019081526020015f205f6101000a81548160ff0219169083151502179055506117db611503565b73ffffffffffffffffffffffffffffffffffffffff168273ffffffffffffffffffffffffffffffffffffffff16847f2f8788117e7eff1d82e926ec794901d17c78024a50270940304540a733656f0d60405160405180910390a460019050611842565b5f90505b92915050565b5f6118538383610eac565b15611928575f600a5f8581526020019081526020015f205f015f8473ffffffffffffffffffffffffffffffffffffffff1673ffffffffffffffffffffffffffffffffffffffff1681526020019081526020015f205f6101000a81548160ff0219169083151502179055506118c5611503565b73ffffffffffffffffffffffffffffffffffffffff168273ffffffffffffffffffffffffffffffffffffffff16847ff6391f5c32d9c69d2a47ea670b442974b53935d1edc7fd64eb21e047a839171b60405160405180910390a46001905061192c565b5f90505b92915050565b5f61194461193e6125d6565b8361268c565b9050919050565b5f5f5f5f61195986866126cc565b9250925092506119698282612721565b82935050505092915050565b60605f839050808360405160200161198e929190613d67565b60405160208183030381529060405291505092915050565b5f5f600490508060ff16836040015160ff1614611a00578260400151816040517f67cf30710000000000000000000000000000000000000000000000000000000081526004016119f7929190613d8e565b60405180910390fd5b611a11611a0c84612883565b6128c5565b915050919050565b5f73ffffffffffffffffffffffffffffffffffffffff168373ffffffffffffffffffffffffffffffffffffffff1603611a89575f6040517fe602df05000000000000000000000000000000000000000000000000000000008152600401611a809190613d19565b60405180910390fd5b5f73ffffffffffffffffffffffffffffffffffffffff168273ffffffffffffffffffffffffffffffffffffffff1603611af9575f6040517f94280d62000000000000000000000000000000000000000000000000000000008152600401611af09190613d19565b60405180910390fd5b8060085f8573ffffffffffffffffffffffffffffffffffffffff1673ffffffffffffffffffffffffffffffffffffffff1681526020019081526020015f205f8473ffffffffffffffffffffffffffffffffffffffff1673ffffffffffffffffffffffffffffffffffffffff1681526020019081526020015f2081905550505050565b5f611b8583611ef5565b611b9557611b925f6113b6565b92505b611b9e82611ef5565b611bae57611bab5f6113b6565b91505b611bbc600484846007611f06565b905092915050565b611bcd81611ef5565b611bdd57611bda5f6113b6565b90505b611be68161295c565b5050565b6060611c2060057f00000000000000000000000000000000000000000000000000000000000000006129e190919063ffffffff16565b905090565b6060611c5b60067f00000000000000000000000000000000000000000000000000000000000000006129e190919063ffffffff16565b905090565b5f73ffffffffffffffffffffffffffffffffffffffff168273ffffffffffffffffffffffffffffffffffffffff1603611cd0575f6040517f96c6fd1e000000000000000000000000000000000000000000000000000000008152600401611cc79190613d19565b60405180910390fd5b611cdb825f8361219d565b5050565b5f611ce983611ef5565b611cf957611cf65f6113b6565b92505b611d0282611ef5565b611d1257611d0f5f6113b6565b91505b611d20600484846008611f06565b905092915050565b5f5f611d3485856108c5565b90505f611d418285612a8e565b9050611d578686611d528585611b7b565b611a19565b80925050509392505050565b5f5f611dbe611daf8460075f8973ffffffffffffffffffffffffffffffffffffffff1673ffffffffffffffffffffffffffffffffffffffff1681526020019081526020015f2054612ad7565b84611db95f6113b6565b611411565b9050611e0760075f8673ffffffffffffffffffffffffffffffffffffffff1673ffffffffffffffffffffffffffffffffffffffff1681526020019081526020015f205482611cdf565b60075f8673ffffffffffffffffffffffffffffffffffffffff1673ffffffffffffffffffffffffffffffffffffffff1681526020019081526020015f2081905550611e8f60075f8773ffffffffffffffffffffffffffffffffffffffff1673ffffffffffffffffffffffffffffffffffffffff1681526020019081526020015f205482611b7b565b60075f8773ffffffffffffffffffffffffffffffffffffffff1673ffffffffffffffffffffffffffffffffffffffff1681526020019081526020015f2081905550809150509392505050565b5f5f611ee984600485612b20565b90508091505092915050565b5f611eff82612c1b565b9050919050565b5f73020000000000000000000000000000000000008073ffffffffffffffffffffffffffffffffffffffff16631888debd8684611f438888612c27565b5f67ffffffffffffffff811115611f5d57611f5c613313565b5b604051908082528060200260200182016040528015611f8b5781602001602082028036833780820191505090505b506040518563ffffffff1660e01b8152600401611fab9493929190613e28565b6020604051808303815f875af1158015611fc7573d5f5f3e3d5ffd5b505050506040513d601f19601f82011682018060405250810190611feb9190613e8d565b9050949350505050565b5f611fff82612c1b565b9050919050565b5f612011825f612cc1565b9050919050565b5f73020000000000000000000000000000000000008073ffffffffffffffffffffffffffffffffffffffff16631888debd866004612057888888612cea565b5f67ffffffffffffffff81111561207157612070613313565b5b60405190808252806020026020018201604052801561209f5781602001602082028036833780820191505090505b506040518563ffffffff1660e01b81526004016120bf9493929190613e28565b6020604051808303815f875af11580156120db573d5f5f3e3d5ffd5b505050506040513d601f19601f820116820180604052508101906120ff9190613e8d565b9050949350505050565b5f73020000000000000000000000000000000000008073ffffffffffffffffffffffffffffffffffffffff1663f6bc7f3f836040518263ffffffff1660e01b815260040161215791906132f6565b602060405180830381865afa158015612172573d5f5f3e3d5ffd5b505050506040513d601f19601f820116820180604052508101906121969190613e8d565b9050919050565b5f73ffffffffffffffffffffffffffffffffffffffff168373ffffffffffffffffffffffffffffffffffffffff16036121ed578060025f8282546121e19190613ee5565b925050819055506122bb565b5f5f5f8573ffffffffffffffffffffffffffffffffffffffff1673ffffffffffffffffffffffffffffffffffffffff1681526020019081526020015f2054905081811015612276578381836040517fe450d38c00000000000000000000000000000000000000000000000000000000815260040161226d93929190613d32565b60405180910390fd5b8181035f5f8673ffffffffffffffffffffffffffffffffffffffff1673ffffffffffffffffffffffffffffffffffffffff1681526020019081526020015f2081905550505b5f73ffffffffffffffffffffffffffffffffffffffff168273ffffffffffffffffffffffffffffffffffffffff1603612302578060025f828254039250508190555061234c565b805f5f8473ffffffffffffffffffffffffffffffffffffffff1673ffffffffffffffffffffffffffffffffffffffff1681526020019081526020015f205f82825401925050819055505b8173ffffffffffffffffffffffffffffffffffffffff168373ffffffffffffffffffffffffffffffffffffffff167fddf252ad1be2c89b69c2b068fc378daa952ba7f163c4a11628f55a4df523b3ef836040516123a991906132f6565b60405180910390a3505050565b5f73ffffffffffffffffffffffffffffffffffffffff168473ffffffffffffffffffffffffffffffffffffffff1603612426575f6040517fe602df0500000000000000000000000000000000000000000000000000000000815260040161241d9190613d19565b60405180910390fd5b5f73ffffffffffffffffffffffffffffffffffffffff168373ffffffffffffffffffffffffffffffffffffffff1603612496575f6040517f94280d6200000000000000000000000000000000000000000000000000000000815260040161248d9190613d19565b60405180910390fd5b8160015f8673ffffffffffffffffffffffffffffffffffffffff1673ffffffffffffffffffffffffffffffffffffffff1681526020019081526020015f205f8573ffffffffffffffffffffffffffffffffffffffff1673ffffffffffffffffffffffffffffffffffffffff1681526020019081526020015f2081905550801561257f578273ffffffffffffffffffffffffffffffffffffffff168473ffffffffffffffffffffffffffffffffffffffff167f8c5be1e5ebec7d5bd14f71427d1e84f3dd0314c0f7b2291e5b200ac8c7c3b9258460405161257691906132f6565b60405180910390a35b50505050565b61258f8282610eac565b6125d25780826040517fe2517d3f0000000000000000000000000000000000000000000000000000000081526004016125c9929190613f18565b60405180910390fd5b5050565b5f7f000000000000000000000000000000000000000000000000000000000000000073ffffffffffffffffffffffffffffffffffffffff163073ffffffffffffffffffffffffffffffffffffffff1614801561265157507f000000000000000000000000000000000000000000000000000000000000000046145b1561267e577f00000000000000000000000000000000000000000000000000000000000000009050612689565b612686612da6565b90505b90565b5f6040517f190100000000000000000000000000000000000000000000000000000000000081528360028201528260228201526042812091505092915050565b5f5f5f604184510361270c575f5f5f602087015192506040870151915060608701515f1a90506126fe88828585612e3b565b95509550955050505061271a565b5f600285515f1b9250925092505b9250925092565b5f600381111561273457612733613db5565b5b82600381111561274757612746613db5565b5b031561287f576001600381111561276157612760613db5565b5b82600381111561277457612773613db5565b5b036127ab576040517ff645eedf00000000000000000000000000000000000000000000000000000000815260040160405180910390fd5b600260038111156127bf576127be613db5565b5b8260038111156127d2576127d1613db5565b5b0361281657805f1c6040517ffce698f700000000000000000000000000000000000000000000000000000000815260040161280d91906132f6565b60405180910390fd5b60038081111561282957612828613db5565b5b82600381111561283c5761283b613db5565b5b0361287e57806040517fd78bce0c000000000000000000000000000000000000000000000000000000008152600401612875919061369e565b60405180910390fd5b5b5050565b61288b613039565b6040518060800160405280835f01518152602001836020015160ff168152602001600460ff16815260200183606001518152509050919050565b5f73020000000000000000000000000000000000008073ffffffffffffffffffffffffffffffffffffffff166327f9c76283336040518363ffffffff1660e01b8152600401612915929190613ff6565b6020604051808303815f875af1158015612931573d5f5f3e3d5ffd5b505050506040513d601f19601f820116820180604052508101906129559190613e8d565b9050919050565b5f73020000000000000000000000000000000000008073ffffffffffffffffffffffffffffffffffffffff16630828982783336040518363ffffffff1660e01b81526004016129ac929190614024565b5f604051808303815f87803b1580156129c3575f5ffd5b505af11580156129d5573d5f5f3e3d5ffd5b50505050819050919050565b606060ff5f1b83146129fd576129f683612f22565b9050612a88565b818054612a0990613c9e565b80601f0160208091040260200160405190810160405280929190818152602001828054612a3590613c9e565b8015612a805780601f10612a5757610100808354040283529160200191612a80565b820191905f5260205f20905b815481529060010190602001808311612a6357829003601f168201915b505050505090505b92915050565b5f612a9883611ef5565b612aa857612aa55f6113b6565b92505b612ab182611ef5565b612ac157612abe5f6113b6565b91505b612acf600484846016611f06565b905092915050565b5f612ae183611ef5565b612af157612aee5f6113b6565b92505b612afa82611ef5565b612b0a57612b075f6113b6565b91505b612b18600484846014611f06565b905092915050565b5f73020000000000000000000000000000000000008073ffffffffffffffffffffffffffffffffffffffff16631888debd84601a5f67ffffffffffffffff811115612b6e57612b6d613313565b5b604051908082528060200260200182016040528015612b9c5781602001602082028036833780820191505090505b50612bb3898960ff16612bae8a612f94565b612cea565b6040518563ffffffff1660e01b8152600401612bd29493929190613e28565b6020604051808303815f875af1158015612bee573d5f5f3e3d5ffd5b505050506040513d601f19601f82011682018060405250810190612c129190613e8d565b90509392505050565b5f5f8214159050919050565b60605f600267ffffffffffffffff811115612c4557612c44613313565b5b604051908082528060200260200182016040528015612c735781602001602082028036833780820191505090505b50905083815f81518110612c8a57612c8961404b565b5b6020026020010181815250508281600181518110612cab57612caa61404b565b5b6020026020010181815250508091505092915050565b5f5f5f90508315612cd157600190505b5f612cdd825f86612b20565b9050809250505092915050565b60605f600367ffffffffffffffff811115612d0857612d07613313565b5b604051908082528060200260200182016040528015612d365781602001602082028036833780820191505090505b50905084815f81518110612d4d57612d4c61404b565b5b6020026020010181815250508381600181518110612d6e57612d6d61404b565b5b6020026020010181815250508281600281518110612d8f57612d8e61404b565b5b602002602001018181525050809150509392505050565b5f7f8b73c3c69bb8fe3d512ecc4cf759cc79239f7b179b0ffacaa9a75d522b39400f7f00000000000000000000000000000000000000000000000000000000000000007f00000000000000000000000000000000000000000000000000000000000000004630604051602001612e20959493929190614078565b60405160208183030381529060405280519060200120905090565b5f5f5f7f7fffffffffffffffffffffffffffffff5d576e7357a4501ddfe92f46681b20a0845f1c1115612e77575f600385925092509250612f18565b5f6001888888886040515f8152602001604052604051612e9a94939291906140c9565b6020604051602081039080840390855afa158015612eba573d5f5f3e3d5ffd5b5050506020604051035190505f73ffffffffffffffffffffffffffffffffffffffff168173ffffffffffffffffffffffffffffffffffffffff1603612f0b575f60015f5f1b93509350935050612f18565b805f5f5f1b935093509350505b9450945094915050565b60605f612f2e83612feb565b90505f602067ffffffffffffffff811115612f4c57612f4b613313565b5b6040519080825280601f01601f191660200182016040528015612f7e5781602001600182028036833780820191505090505b5090508181528360208201528092505050919050565b5f5f8260030b1215612fdd57816040517f8f568bf8000000000000000000000000000000000000000000000000000000008152600401612fd49190614127565b60405180910390fd5b8163ffffffff169050919050565b5f5f60ff835f1c169050601f811115613030576040517fb3512b0c00000000000000000000000000000000000000000000000000000000815260040160405180910390fd5b80915050919050565b60405180608001604052805f81526020015f60ff1681526020015f60ff168152602001606081525090565b5f604051905090565b5f5ffd5b5f5ffd5b5f7fffffffff0000000000000000000000000000000000000000000000000000000082169050919050565b6130a981613075565b81146130b3575f5ffd5b50565b5f813590506130c4816130a0565b92915050565b5f602082840312156130df576130de61306d565b5b5f6130ec848285016130b6565b91505092915050565b5f8115159050919050565b613109816130f5565b82525050565b5f6020820190506131225f830184613100565b92915050565b5f81519050919050565b5f82825260208201905092915050565b8281835e5f83830152505050565b5f601f19601f8301169050919050565b5f61316a82613128565b6131748185613132565b9350613184818560208601613142565b61318d81613150565b840191505092915050565b5f6020820190508181035f8301526131b08184613160565b905092915050565b5f63ffffffff82169050919050565b6131d0816131b8565b81146131da575f5ffd5b50565b5f813590506131eb816131c7565b92915050565b5f602082840312156132065761320561306d565b5b5f613213848285016131dd565b91505092915050565b5f73ffffffffffffffffffffffffffffffffffffffff82169050919050565b5f6132458261321c565b9050919050565b6132558161323b565b811461325f575f5ffd5b50565b5f813590506132708161324c565b92915050565b5f819050919050565b61328881613276565b8114613292575f5ffd5b50565b5f813590506132a38161327f565b92915050565b5f5f604083850312156132bf576132be61306d565b5b5f6132cc85828601613262565b92505060206132dd85828601613295565b9150509250929050565b6132f081613276565b82525050565b5f6020820190506133095f8301846132e7565b92915050565b5f5ffd5b7f4e487b71000000000000000000000000000000000000000000000000000000005f52604160045260245ffd5b61334982613150565b810181811067ffffffffffffffff8211171561336857613367613313565b5b80604052505050565b5f61337a613064565b90506133868282613340565b919050565b5f5ffd5b5f60ff82169050919050565b6133a48161338f565b81146133ae575f5ffd5b50565b5f813590506133bf8161339b565b92915050565b5f5ffd5b5f5ffd5b5f67ffffffffffffffff8211156133e7576133e6613313565b5b6133f082613150565b9050602081019050919050565b828183375f83830152505050565b5f61341d613418846133cd565b613371565b905082815260208101848484011115613439576134386133c9565b5b6134448482856133fd565b509392505050565b5f82601f8301126134605761345f6133c5565b5b813561347084826020860161340b565b91505092915050565b5f6080828403121561348e5761348d61330f565b5b6134986080613371565b90505f6134a784828501613295565b5f8301525060206134ba848285016133b1565b60208301525060406134ce848285016133b1565b604083015250606082013567ffffffffffffffff8111156134f2576134f161338b565b5b6134fe8482850161344c565b60608301525092915050565b5f6020828403121561351f5761351e61306d565b5b5f82013567ffffffffffffffff81111561353c5761353b613071565b5b61354884828501613479565b91505092915050565b5f5f5f606084860312156135685761356761306d565b5b5f61357586828701613262565b935050602061358686828701613262565b925050604061359786828701613295565b9150509250925092565b5f5f604083850312156135b7576135b661306d565b5b5f6135c485828601613262565b92505060206135d585828601613262565b9150509250929050565b5f819050919050565b5f6136026135fd6135f884613276565b6135df565b613276565b9050919050565b613612816135e8565b82525050565b5f60208201905061362b5f830184613609565b92915050565b5f819050919050565b61364381613631565b811461364d575f5ffd5b50565b5f8135905061365e8161363a565b92915050565b5f602082840312156136795761367861306d565b5b5f61368684828501613650565b91505092915050565b61369881613631565b82525050565b5f6020820190506136b15f83018461368f565b92915050565b5f5f604083850312156136cd576136cc61306d565b5b5f6136da85828601613650565b92505060206136eb85828601613262565b9150509250929050565b6136fe8161338f565b82525050565b5f6020820190506137175f8301846136f5565b92915050565b5f5ffd5b5f604082840312156137365761373561371d565b5b81905092915050565b5f5f604083850312156137555761375461306d565b5b5f61376285828601613262565b925050602083013567ffffffffffffffff81111561378357613782613071565b5b61378f85828601613721565b9150509250929050565b5f81519050919050565b5f82825260208201905092915050565b5f6137bd82613799565b6137c781856137a3565b93506137d7818560208601613142565b6137e081613150565b840191505092915050565b5f6020820190508181035f83015261380381846137b3565b905092915050565b5f5f604083850312156138215761382061306d565b5b5f61382e85828601613262565b925050602083013567ffffffffffffffff81111561384f5761384e613071565b5b61385b85828601613479565b9150509250929050565b5f6040828403121561387a5761387961330f565b5b6138846040613371565b90505f61389384828501613650565b5f83015250602082013567ffffffffffffffff8111156138b6576138b561338b565b5b6138c28482850161344c565b60208301525092915050565b5f5f604083850312156138e4576138e361306d565b5b5f6138f185828601613262565b925050602083013567ffffffffffffffff81111561391257613911613071565b5b61391e85828601613865565b9150509250929050565b5f6080828403121561393d5761393c61371d565b5b81905092915050565b5f5f6040838503121561395c5761395b61306d565b5b5f61396985828601613262565b925050602083013567ffffffffffffffff81111561398a57613989613071565b5b61399685828601613928565b9150509250929050565b5f602082840312156139b5576139b461306d565b5b5f6139c284828501613262565b91505092915050565b5f7fff0000000000000000000000000000000000000000000000000000000000000082169050919050565b6139ff816139cb565b82525050565b613a0e8161323b565b82525050565b5f81519050919050565b5f82825260208201905092915050565b5f819050602082019050919050565b613a4681613276565b82525050565b5f613a578383613a3d565b60208301905092915050565b5f602082019050919050565b5f613a7982613a14565b613a838185613a1e565b9350613a8e83613a2e565b805f5b83811015613abe578151613aa58882613a4c565b9750613ab083613a63565b925050600181019050613a91565b5085935050505092915050565b5f60e082019050613ade5f83018a6139f6565b8181036020830152613af08189613160565b90508181036040830152613b048188613160565b9050613b1360608301876132e7565b613b206080830186613a05565b613b2d60a083018561368f565b81810360c0830152613b3f8184613a6f565b905098975050505050505050565b613b5681613276565b8114613b60575f5ffd5b50565b5f81359050613b7181613b4d565b92915050565b5f5f5f60608486031215613b8e57613b8d61306d565b5b5f613b9b86828701613262565b9350506020613bac86828701613262565b9250506040613bbd86828701613b63565b9150509250925092565b5f5f60408385031215613bdd57613bdc61306d565b5b5f613bea85828601613262565b9250506020613bfb85828601613b63565b9150509250929050565b5f5f5f60608486031215613c1c57613c1b61306d565b5b5f613c2986828701613262565b9350506020613c3a86828701613262565b925050604084013567ffffffffffffffff811115613c5b57613c5a613071565b5b613c6786828701613928565b9150509250925092565b7f4e487b71000000000000000000000000000000000000000000000000000000005f52602260045260245ffd5b5f6002820490506001821680613cb557607f821691505b602082108103613cc857613cc7613c71565b5b50919050565b5f613cd93683613865565b9050919050565b5f604082019050613cf35f83018561368f565b613d00602083018461368f565b9392505050565b5f613d123683613479565b9050919050565b5f602082019050613d2c5f830184613a05565b92915050565b5f606082019050613d455f830186613a05565b613d5260208301856132e7565b613d5f60408301846132e7565b949350505050565b5f604082019050613d7a5f8301856132e7565b613d87602083018461368f565b9392505050565b5f604082019050613da15f8301856136f5565b613dae60208301846136f5565b9392505050565b7f4e487b71000000000000000000000000000000000000000000000000000000005f52602160045260245ffd5b60208110613df357613df2613db5565b5b50565b5f819050613e0382613de2565b919050565b5f613e1282613df6565b9050919050565b613e2281613e08565b82525050565b5f608082019050613e3b5f8301876136f5565b613e486020830186613e19565b8181036040830152613e5a8185613a6f565b90508181036060830152613e6e8184613a6f565b905095945050505050565b5f81519050613e878161327f565b92915050565b5f60208284031215613ea257613ea161306d565b5b5f613eaf84828501613e79565b91505092915050565b7f4e487b71000000000000000000000000000000000000000000000000000000005f52601160045260245ffd5b5f613eef82613276565b9150613efa83613276565b9250828201905080821115613f1257613f11613eb8565b5b92915050565b5f604082019050613f2b5f830185613a05565b613f38602083018461368f565b9392505050565b613f488161338f565b82525050565b5f82825260208201905092915050565b5f613f6882613799565b613f728185613f4e565b9350613f82818560208601613142565b613f8b81613150565b840191505092915050565b5f608083015f830151613fab5f860182613a3d565b506020830151613fbe6020860182613f3f565b506040830151613fd16040860182613f3f565b5060608301518482036060860152613fe98282613f5e565b9150508091505092915050565b5f6040820190508181035f83015261400e8185613f96565b905061401d6020830184613a05565b9392505050565b5f6040820190506140375f8301856132e7565b6140446020830184613a05565b9392505050565b7f4e487b71000000000000000000000000000000000000000000000000000000005f52603260045260245ffd5b5f60a08201905061408b5f83018861368f565b614098602083018761368f565b6140a5604083018661368f565b6140b260608301856132e7565b6140bf6080830184613a05565b9695505050505050565b5f6080820190506140dc5f83018761368f565b6140e960208301866136f5565b6140f6604083018561368f565b614103606083018461368f565b95945050505050565b5f8160030b9050919050565b6141218161410c565b82525050565b5f60208201905061413a5f830184614118565b9291505056fea264697066735822122056c4bb765323c5518acdee9586ebd6cb2e520cb81b9874c7c54933c5fda963d364736f6c634300081b0033","linkReferences":{}},"methodIdentifiers":{"DEFAULT_ADMIN_ROLE()":"a217fddf","MINTER_ROLE()":"d5391393","_allowanceEncrypted(address,address)":"23db9354","allowance(address,address)":"dd62ed3e","allowanceEncrypted(address,(bytes32,bytes))":"5356c429","approve(address,uint256)":"095ea7b3","approveEncrypted(address,(uint256,uint8,uint8,bytes))":"63c05a33","balanceOf(address)":"70a08231","balanceOfEncrypted(address,(bytes32,bytes))":"60277204","completeUnwrap(uint32)":"095548f3","decimals()":"313ce567","eip712Domain()":"84b0196e","getRoleAdmin(bytes32)":"248a9ca3","grantRole(bytes32,address)":"2f2ff15d","hasRole(bytes32,address)":"91d14854","mintEncrypted(address,(uint256,uint8,uint8,bytes))":"5b6c6b3e","mintEncryptedDebug((uint256,uint8,uint8,bytes))":"1be32e2d","name()":"06fdde03","renounceRole(bytes32,address)":"36568abe","requestUnwrap(uint32)":"e83c3af7","revokeRole(bytes32,address)":"d547741f","supportsInterface(bytes4)":"01ffc9a7","symbol()":"95d89b41","totalSupply()":"18160ddd","transfer(address,uint256)":"a9059cbb","transferEncrypted(address,(uint256,uint8,uint8,bytes))":"fe229cbe","transferEncrypted(address,uint256)":"c4224c19","transferFrom(address,address,uint256)":"23b872dd","transferFromEncrypted(address,address,(uint256,uint8,uint8,bytes))":"e1a136d5","transferFromEncrypted(address,address,uint256)":"af575a00","unwrap(uint32)":"6e0505e1","wrap(uint32)":"9f284be7"},"id":3}