{"abi":[{"type":"constructor","inputs":[{"name":"name","type":"string","internalType":"string"},{"name":"symbol","type":"string","internalType":"string"}],"stateMutability":"nonpayable"},{"type":"function","name":"_allowanceEncrypted","inputs":[{"name":"owner","type":"address","internalType":"address"},{"name":"spender","type":"address","internalType":"address"}],"outputs":[{"name":"","type":"uint256","internalType":"euint32"}],"stateMutability":"view"},{"type":"function","name":"allowance","inputs":[{"name":"owner","type":"address","internalType":"address"},{"name":"spender","type":"address","internalType":"address"}],"outputs":[{"name":"","type":"uint256","internalType":"uint256"}],"stateMutability":"view"},{"type":"function","name":"allowanceEncrypted","inputs":[{"name":"spender","type":"address","internalType":"address"},{"name":"permission","type":"tuple","internalType":"struct Permission","components":[{"name":"publicKey","type":"bytes32","internalType":"bytes32"},{"name":"signature","type":"bytes","internalType":"bytes"}]}],"outputs":[{"name":"","type":"bytes","internalType":"bytes"}],"stateMutability":"view"},{"type":"function","name":"approve","inputs":[{"name":"spender","type":"address","internalType":"address"},{"name":"value","type":"uint256","internalType":"uint256"}],"outputs":[{"name":"","type":"bool","internalType":"bool"}],"stateMutability":"nonpayable"},{"type":"function","name":"approveEncrypted","inputs":[{"name":"spender","type":"address","internalType":"address"},{"name":"value","type":"tuple","internalType":"struct Euint32","components":[{"name":"ctHash","type":"uint256","internalType":"uint256"},{"name":"securityZone","type":"uint8","internalType":"uint8"},{"name":"utype","type":"uint8","internalType":"uint8"},{"name":"signature","type":"bytes","internalType":"bytes"}]}],"outputs":[{"name":"","type":"bool","internalType":"bool"}],"stateMutability":"nonpayable"},{"type":"function","name":"balanceOf","inputs":[{"name":"account","type":"address","internalType":"address"}],"outputs":[{"name":"","type":"uint256","internalType":"uint256"}],"stateMutability":"view"},{"type":"function","name":"balanceOfEncrypted","inputs":[{"name":"account","type":"address","internalType":"address"},{"name":"auth","type":"tuple","internalType":"struct Permission","components":[{"name":"publicKey","type":"bytes32","internalType":"bytes32"},{"name":"signature","type":"bytes","internalType":"bytes"}]}],"outputs":[{"name":"","type":"bytes","internalType":"bytes"}],"stateMutability":"view"},{"type":"function","name":"completeUnwrap","inputs":[{"name":"amount","type":"uint32","internalType":"uint32"}],"outputs":[],"stateMutability":"nonpayable"},{"type":"function","name":"decimals","inputs":[],"outputs":[{"name":"","type":"uint8","internalType":"uint8"}],"stateMutability":"view"},{"type":"function","name":"eip712Domain","inputs":[],"outputs":[{"name":"fields","type":"bytes1","internalType":"bytes1"},{"name":"name","type":"string","internalType":"string"},{"name":"version","type":"string","internalType":"string"},{"name":"chainId","type":"uint256","internalType":"uint256"},{"name":"verifyingContract","type":"address","internalType":"address"},{"name":"salt","type":"bytes32","internalType":"bytes32"},{"name":"extensions","type":"uint256[]","internalType":"uint256[]"}],"stateMutability":"view"},{"type":"function","name":"name","inputs":[],"outputs":[{"name":"","type":"string","internalType":"string"}],"stateMutability":"view"},{"type":"function","name":"requestUnwrap","inputs":[{"name":"amount","type":"uint32","internalType":"uint32"}],"outputs":[],"stateMutability":"nonpayable"},{"type":"function","name":"symbol","inputs":[],"outputs":[{"name":"","type":"string","internalType":"string"}],"stateMutability":"view"},{"type":"function","name":"totalSupply","inputs":[],"outputs":[{"name":"","type":"uint256","internalType":"uint256"}],"stateMutability":"view"},{"type":"function","name":"transfer","inputs":[{"name":"to","type":"address","internalType":"address"},{"name":"value","type":"uint256","internalType":"uint256"}],"outputs":[{"name":"","type":"bool","internalType":"bool"}],"stateMutability":"nonpayable"},{"type":"function","name":"transferEncrypted","inputs":[{"name":"to","type":"address","internalType":"address"},{"name":"amount","type":"uint256","internalType":"euint32"}],"outputs":[{"name":"","type":"uint256","internalType":"euint32"}],"stateMutability":"nonpayable"},{"type":"function","name":"transferEncrypted","inputs":[{"name":"to","type":"address","internalType":"address"},{"name":"encryptedAmount","type":"tuple","internalType":"struct Euint32","components":[{"name":"ctHash","type":"uint256","internalType":"uint256"},{"name":"securityZone","type":"uint8","internalType":"uint8"},{"name":"utype","type":"uint8","internalType":"uint8"},{"name":"signature","type":"bytes","internalType":"bytes"}]}],"outputs":[{"name":"","type":"uint256","internalType":"euint32"}],"stateMutability":"nonpayable"},{"type":"function","name":"transferFrom","inputs":[{"name":"from","type":"address","internalType":"address"},{"name":"to","type":"address","internalType":"address"},{"name":"value","type":"uint256","internalType":"uint256"}],"outputs":[{"name":"","type":"bool","internalType":"bool"}],"stateMutability":"nonpayable"},{"type":"function","name":"transferFromEncrypted","inputs":[{"name":"from","type":"address","internalType":"address"},{"name":"to","type":"address","internalType":"address"},{"name":"value","type":"uint256","internalType":"euint32"}],"outputs":[{"name":"","type":"uint256","internalType":"euint32"}],"stateMutability":"nonpayable"},{"type":"function","name":"transferFromEncrypted","inputs":[{"name":"from","type":"address","internalType":"address"},{"name":"to","type":"address","internalType":"address"},{"name":"value","type":"tuple","internalType":"struct Euint32","components":[{"name":"ctHash","type":"uint256","internalType":"uint256"},{"name":"securityZone","type":"uint8","internalType":"uint8"},{"name":"utype","type":"uint8","internalType":"uint8"},{"name":"signature","type":"bytes","internalType":"bytes"}]}],"outputs":[{"name":"","type":"uint256","internalType":"euint32"}],"stateMutability":"nonpayable"},{"type":"function","name":"unwrap","inputs":[{"name":"amount","type":"uint32","internalType":"uint32"}],"outputs":[],"stateMutability":"nonpayable"},{"type":"function","name":"wrap","inputs":[{"name":"amount","type":"uint32","internalType":"uint32"}],"outputs":[],"stateMutability":"nonpayable"},{"type":"event","name":"Approval","inputs":[{"name":"owner","type":"address","indexed":true,"internalType":"address"},{"name":"spender","type":"address","indexed":true,"internalType":"address"},{"name":"value","type":"uint256","indexed":false,"internalType":"uint256"}],"anonymous":false},{"type":"event","name":"ApprovalEncrypted","inputs":[{"name":"owner","type":"address","indexed":true,"internalType":"address"},{"name":"spender","type":"address","indexed":true,"internalType":"address"}],"anonymous":false},{"type":"event","name":"EIP712DomainChanged","inputs":[],"anonymous":false},{"type":"event","name":"Transfer","inputs":[{"name":"from","type":"address","indexed":true,"internalType":"address"},{"name":"to","type":"address","indexed":true,"internalType":"address"},{"name":"value","type":"uint256","indexed":false,"internalType":"uint256"}],"anonymous":false},{"type":"event","name":"TransferEncrypted","inputs":[{"name":"from","type":"address","indexed":true,"internalType":"address"},{"name":"to","type":"address","indexed":true,"internalType":"address"}],"anonymous":false},{"type":"error","name":"ECDSAInvalidSignature","inputs":[]},{"type":"error","name":"ECDSAInvalidSignatureLength","inputs":[{"name":"length","type":"uint256","internalType":"uint256"}]},{"type":"error","name":"ECDSAInvalidSignatureS","inputs":[{"name":"s","type":"bytes32","internalType":"bytes32"}]},{"type":"error","name":"ERC20InsufficientAllowance","inputs":[{"name":"spender","type":"address","internalType":"address"},{"name":"allowance","type":"uint256","internalType":"uint256"},{"name":"needed","type":"uint256","internalType":"uint256"}]},{"type":"error","name":"ERC20InsufficientBalance","inputs":[{"name":"sender","type":"address","internalType":"address"},{"name":"balance","type":"uint256","internalType":"uint256"},{"name":"needed","type":"uint256","internalType":"uint256"}]},{"type":"error","name":"ERC20InvalidApprover","inputs":[{"name":"approver","type":"address","internalType":"address"}]},{"type":"error","name":"ERC20InvalidReceiver","inputs":[{"name":"receiver","type":"address","internalType":"address"}]},{"type":"error","name":"ERC20InvalidSender","inputs":[{"name":"sender","type":"address","internalType":"address"}]},{"type":"error","name":"ERC20InvalidSpender","inputs":[{"name":"spender","type":"address","internalType":"address"}]},{"type":"error","name":"ErrorInsufficientFunds","inputs":[]},{"type":"error","name":"InvalidEncryptedInput","inputs":[{"name":"got","type":"uint8","internalType":"uint8"},{"name":"expected","type":"uint8","internalType":"uint8"}]},{"type":"error","name":"InvalidShortString","inputs":[]},{"type":"error","name":"SecurityZoneOutOfBounds","inputs":[{"name":"value","type":"int32","internalType":"int32"}]},{"type":"error","name":"SignerNotMessageSender","inputs":[]},{"type":"error","name":"SignerNotOwner","inputs":[]},{"type":"error","name":"StringTooLong","inputs":[{"name":"str","type":"string","internalType":"string"}]}],"bytecode":{"object":"0x610160604052348015610010575f5ffd5b506040516146243803806146248339818101604052810190610032919061063c565b6040518060400160405280601181526020017f4c7578464845205065726d697373696f6e0000000000000000000000000000008152506040518060400160405280600381526020017f312e300000000000000000000000000000000000000000000000000000000000815250838381600390816100af91906108c2565b5080600490816100bf91906108c2565b5050506100d660058361018860201b90919060201c565b61012081815250506100f260068261018860201b90919060201c565b6101408181525050818051906020012060e08181525050808051906020012061010081815250504660a0818152505061012f6101d560201b60201c565b608081815250503073ffffffffffffffffffffffffffffffffffffffff1660c08173ffffffffffffffffffffffffffffffffffffffff1681525050505061017b5f61022f60201b60201c565b6009819055505050610d8f565b5f6020835110156101a9576101a28361024760201b60201c565b90506101cf565b826101b9836102ac60201b60201c565b5f0190816101c791906108c2565b5060ff5f1b90505b92915050565b5f7f8b73c3c69bb8fe3d512ecc4cf759cc79239f7b179b0ffacaa9a75d522b39400f60e0516101005146306040516020016102149594939291906109f7565b60405160208183030381529060405280519060200120905090565b5f610240825f6102b560201b60201c565b9050919050565b5f5f829050601f8151111561029357826040517f305a27a900000000000000000000000000000000000000000000000000000000815260040161028a9190610a90565b60405180910390fd5b80518161029f90610add565b5f1c175f1b915050919050565b5f819050919050565b5f5f6102c9846004856102d560201b60201c565b90508091505092915050565b5f73020000000000000000000000000000000000008073ffffffffffffffffffffffffffffffffffffffff16631888debd84601a5f67ffffffffffffffff81111561032357610322610518565b5b6040519080825280602002602001820160405280156103515781602001602082028036833780820191505090505b50610374898960ff166103698a6103dc60201b60201c565b61043360201b60201c565b6040518563ffffffff1660e01b81526004016103939493929190610c88565b6020604051808303815f875af11580156103af573d5f5f3e3d5ffd5b505050506040513d601f19601f820116820180604052508101906103d39190610d03565b90509392505050565b5f5f8260030b121561042557816040517f8f568bf800000000000000000000000000000000000000000000000000000000815260040161041c9190610d49565b60405180910390fd5b8163ffffffff169050919050565b60605f600367ffffffffffffffff81111561045157610450610518565b5b60405190808252806020026020018201604052801561047f5781602001602082028036833780820191505090505b50905084815f8151811061049657610495610d62565b5b60200260200101818152505083816001815181106104b7576104b6610d62565b5b60200260200101818152505082816002815181106104d8576104d7610d62565b5b602002602001018181525050809150509392505050565b5f604051905090565b5f5ffd5b5f5ffd5b5f5ffd5b5f5ffd5b5f601f19601f8301169050919050565b7f4e487b71000000000000000000000000000000000000000000000000000000005f52604160045260245ffd5b61054e82610508565b810181811067ffffffffffffffff8211171561056d5761056c610518565b5b80604052505050565b5f61057f6104ef565b905061058b8282610545565b919050565b5f67ffffffffffffffff8211156105aa576105a9610518565b5b6105b382610508565b9050602081019050919050565b8281835e5f83830152505050565b5f6105e06105db84610590565b610576565b9050828152602081018484840111156105fc576105fb610504565b5b6106078482856105c0565b509392505050565b5f82601f83011261062357610622610500565b5b81516106338482602086016105ce565b91505092915050565b5f5f60408385031215610652576106516104f8565b5b5f83015167ffffffffffffffff81111561066f5761066e6104fc565b5b61067b8582860161060f565b925050602083015167ffffffffffffffff81111561069c5761069b6104fc565b5b6106a88582860161060f565b9150509250929050565b5f81519050919050565b7f4e487b71000000000000000000000000000000000000000000000000000000005f52602260045260245ffd5b5f600282049050600182168061070057607f821691505b602082108103610713576107126106bc565b5b50919050565b5f819050815f5260205f209050919050565b5f6020601f8301049050919050565b5f82821b905092915050565b5f600883026107757fffffffffffffffffffffffffffffffffffffffffffffffffffffffffffffffff8261073a565b61077f868361073a565b95508019841693508086168417925050509392505050565b5f819050919050565b5f819050919050565b5f6107c36107be6107b984610797565b6107a0565b610797565b9050919050565b5f819050919050565b6107dc836107a9565b6107f06107e8826107ca565b848454610746565b825550505050565b5f5f905090565b6108076107f8565b6108128184846107d3565b505050565b5b818110156108355761082a5f826107ff565b600181019050610818565b5050565b601f82111561087a5761084b81610719565b6108548461072b565b81016020851015610863578190505b61087761086f8561072b565b830182610817565b50505b505050565b5f82821c905092915050565b5f61089a5f198460080261087f565b1980831691505092915050565b5f6108b2838361088b565b9150826002028217905092915050565b6108cb826106b2565b67ffffffffffffffff8111156108e4576108e3610518565b5b6108ee82546106e9565b6108f9828285610839565b5f60209050601f83116001811461092a575f8415610918578287015190505b61092285826108a7565b865550610989565b601f19841661093886610719565b5f5b8281101561095f5784890151825560018201915060208501945060208101905061093a565b8683101561097c5784890151610978601f89168261088b565b8355505b6001600288020188555050505b505050505050565b5f819050919050565b6109a381610991565b82525050565b6109b281610797565b82525050565b5f73ffffffffffffffffffffffffffffffffffffffff82169050919050565b5f6109e1826109b8565b9050919050565b6109f1816109d7565b82525050565b5f60a082019050610a0a5f83018861099a565b610a17602083018761099a565b610a24604083018661099a565b610a3160608301856109a9565b610a3e60808301846109e8565b9695505050505050565b5f82825260208201905092915050565b5f610a62826106b2565b610a6c8185610a48565b9350610a7c8185602086016105c0565b610a8581610508565b840191505092915050565b5f6020820190508181035f830152610aa88184610a58565b905092915050565b5f81519050919050565b5f819050602082019050919050565b5f610ad48251610991565b80915050919050565b5f610ae782610ab0565b82610af184610aba565b9050610afc81610ac9565b92506020821015610b3c57610b377fffffffffffffffffffffffffffffffffffffffffffffffffffffffffffffffff8360200360080261073a565b831692505b5050919050565b5f60ff82169050919050565b610b5881610b43565b82525050565b7f4e487b71000000000000000000000000000000000000000000000000000000005f52602160045260245ffd5b60208110610b9c57610b9b610b5e565b5b50565b5f819050610bac82610b8b565b919050565b5f610bbb82610b9f565b9050919050565b610bcb81610bb1565b82525050565b5f81519050919050565b5f82825260208201905092915050565b5f819050602082019050919050565b610c0381610797565b82525050565b5f610c148383610bfa565b60208301905092915050565b5f602082019050919050565b5f610c3682610bd1565b610c408185610bdb565b9350610c4b83610beb565b805f5b83811015610c7b578151610c628882610c09565b9750610c6d83610c20565b925050600181019050610c4e565b5085935050505092915050565b5f608082019050610c9b5f830187610b4f565b610ca86020830186610bc2565b8181036040830152610cba8185610c2c565b90508181036060830152610cce8184610c2c565b905095945050505050565b610ce281610797565b8114610cec575f5ffd5b50565b5f81519050610cfd81610cd9565b92915050565b5f60208284031215610d1857610d176104f8565b5b5f610d2584828501610cef565b91505092915050565b5f8160030b9050919050565b610d4381610d2e565b82525050565b5f602082019050610d5c5f830184610d3a565b92915050565b7f4e487b71000000000000000000000000000000000000000000000000000000005f52603260045260245ffd5b60805160a05160c05160e051610100516101205161014051613844610de05f395f6114fe01525f6114c301525f61266a01525f61264901525f611e5801525f611eae01525f611ed701526138445ff3fe608060405234801561000f575f5ffd5b5060043610610140575f3560e01c806370a08231116100b6578063af575a001161007a578063af575a00146103b4578063c4224c19146103e4578063dd62ed3e14610414578063e1a136d514610444578063e83c3af714610474578063fe229cbe1461049057610140565b806370a08231146102f657806384b0196e1461032657806395d89b411461034a5780639f284be714610368578063a9059cbb1461038457610140565b806323db93541161010857806323db9354146101fc578063313ce5671461022c5780635356c4291461024a578063602772041461027a57806363c05a33146102aa5780636e0505e1146102da57610140565b806306fdde0314610144578063095548f314610162578063095ea7b31461017e57806318160ddd146101ae57806323b872dd146101cc575b5f5ffd5b61014c6104c0565b6040516101599190612953565b60405180910390f35b61017c600480360381019061017791906129bd565b610550565b005b61019860048036038101906101939190612a75565b6105e0565b6040516101a59190612acd565b60405180910390f35b6101b6610602565b6040516101c39190612af5565b60405180910390f35b6101e660048036038101906101e19190612b0e565b61060b565b6040516101f39190612acd565b60405180910390f35b61021660048036038101906102119190612b5e565b610639565b6040516102239190612bd5565b60405180910390f35b6102346106bb565b6040516102419190612c09565b60405180910390f35b610264600480360381019061025f9190612c44565b6106c3565b6040516102719190612cf0565b60405180910390f35b610294600480360381019061028f9190612ee0565b6107bd565b6040516102a19190612cf0565b60405180910390f35b6102c460048036038101906102bf9190612f58565b6108e4565b6040516102d19190612acd565b60405180910390f35b6102f460048036038101906102ef91906129bd565b61090b565b005b610310600480360381019061030b9190612fb2565b610a3e565b60405161031d9190612af5565b60405180910390f35b61032e610a83565b60405161034197969594939291906130ec565b60405180910390f35b610352610b28565b60405161035f9190612953565b60405180910390f35b610382600480360381019061037d91906129bd565b610bb8565b005b61039e60048036038101906103999190612a75565b610cc0565b6040516103ab9190612acd565b60405180910390f35b6103ce60048036038101906103c99190613198565b610ce2565b6040516103db9190612bd5565b60405180910390f35b6103fe60048036038101906103f991906131e8565b610d0d565b60405161040b9190612bd5565b60405180910390f35b61042e60048036038101906104299190612b5e565b610d21565b60405161043b9190612af5565b60405180910390f35b61045e60048036038101906104599190613226565b610da3565b60405161046b9190612bd5565b60405180910390f35b61048e600480360381019061048991906129bd565b610ddf565b005b6104aa60048036038101906104a59190612f58565b610ef5565b6040516104b79190612bd5565b60405180910390f35b6060600380546104cf906132bf565b80601f01602080910402602001604051908101604052809291908181526020018280546104fb906132bf565b80156105465780601f1061051d57610100808354040283529160200191610546565b820191905f5260205f20905b81548152906001019060200180831161052957829003601f168201915b5050505050905090565b5f6105608263ffffffff16610f19565b90505f6105bc6105ad60075f3373ffffffffffffffffffffffffffffffffffffffff1673ffffffffffffffffffffffffffffffffffffffff1681526020019081526020015f205484610f2b565b6105b65f610f19565b84610f74565b90505f6105c882610fd6565b90506105da338263ffffffff16610fe7565b50505050565b5f5f6105ea611066565b90506105f781858561106d565b600191505092915050565b5f600254905090565b5f5f610615611066565b905061062285828561107f565b61062d858585611112565b60019150509392505050565b5f60085f8473ffffffffffffffffffffffffffffffffffffffff1673ffffffffffffffffffffffffffffffffffffffff1681526020019081526020015f205f8373ffffffffffffffffffffffffffffffffffffffff1673ffffffffffffffffffffffffffffffffffffffff1681526020019081526020015f2054905092915050565b5f6012905090565b6060816106cf906132ef565b5f6107247f6bdaeb2d29561f159c7ef98b16b27015fb2aeb87209c7ee656226d912f59927d835f0151604051602001610709929190613301565b60405160208183030381529060405280519060200120611202565b90505f61073582846020015161121b565b90503373ffffffffffffffffffffffffffffffffffffffff168173ffffffffffffffffffffffffffffffffffffffff161461079c576040517f3093a27700000000000000000000000000000000000000000000000000000000815260040160405180910390fd5b6107b26107a93388610639565b865f0135611245565b935050505092915050565b606081835f6108167f6bdaeb2d29561f159c7ef98b16b27015fb2aeb87209c7ee656226d912f59927d845f01516040516020016107fb929190613301565b60405160208183030381529060405280519060200120611202565b90505f61082782856020015161121b565b90508273ffffffffffffffffffffffffffffffffffffffff168173ffffffffffffffffffffffffffffffffffffffff161461088e576040517f51c65eae00000000000000000000000000000000000000000000000000000000815260040160405180910390fd5b6108d860075f8973ffffffffffffffffffffffffffffffffffffffff1673ffffffffffffffffffffffffffffffffffffffff1681526020019081526020015f2054875f0151611245565b94505050505092915050565b5f61090133846108fc856108f7906133e3565b611276565b6112e9565b6001905092915050565b5f61091b8263ffffffff16610f19565b90505f61097761096860075f3373ffffffffffffffffffffffffffffffffffffffff1673ffffffffffffffffffffffffffffffffffffffff1681526020019081526020015f205484610f2b565b6109715f610f19565b84610f74565b90506109c060075f3373ffffffffffffffffffffffffffffffffffffffff1673ffffffffffffffffffffffffffffffffffffffff1681526020019081526020015f20548261144b565b60075f3373ffffffffffffffffffffffffffffffffffffffff1673ffffffffffffffffffffffffffffffffffffffff1681526020019081526020015f2081905550610a0d6009548261144b565b600981905550610a1c81611494565b5f610a2682610fd6565b9050610a38338263ffffffff16610fe7565b50505050565b5f5f5f8373ffffffffffffffffffffffffffffffffffffffff1673ffffffffffffffffffffffffffffffffffffffff1681526020019081526020015f20549050919050565b5f6060805f5f5f6060610a946114ba565b610a9c6114f5565b46305f5f1b5f67ffffffffffffffff811115610abb57610aba612d14565b5b604051908082528060200260200182016040528015610ae95781602001602082028036833780820191505090505b507f0f00000000000000000000000000000000000000000000000000000000000000959493929190965096509650965096509650965090919293949596565b606060048054610b37906132bf565b80601f0160208091040260200160405190810160405280929190818152602001828054610b63906132bf565b8015610bae5780601f10610b8557610100808354040283529160200191610bae565b820191905f5260205f20905b815481529060010190602001808311610b9157829003601f168201915b5050505050905090565b8063ffffffff16610bc833610a3e565b1015610c00576040517ffda7bbda00000000000000000000000000000000000000000000000000000000815260040160405180910390fd5b610c10338263ffffffff16611530565b5f610c208263ffffffff16610f19565b9050610c6960075f3373ffffffffffffffffffffffffffffffffffffffff1673ffffffffffffffffffffffffffffffffffffffff1681526020019081526020015f2054826115af565b60075f3373ffffffffffffffffffffffffffffffffffffffff1673ffffffffffffffffffffffffffffffffffffffff1681526020019081526020015f2081905550610cb6600954826115af565b6009819055505050565b5f5f610cca611066565b9050610cd7818585611112565b600191505092915050565b5f5f8290505f610cf38633846115f8565b9050610d00868683611633565b5080925050509392505050565b5f610d19338484611633565b905092915050565b5f60015f8473ffffffffffffffffffffffffffffffffffffffff1673ffffffffffffffffffffffffffffffffffffffff1681526020019081526020015f205f8373ffffffffffffffffffffffffffffffffffffffff1673ffffffffffffffffffffffffffffffffffffffff1681526020019081526020015f2054905092915050565b5f5f610db783610db2906133e3565b611276565b90505f610dc58633846115f8565b9050610dd2868683611633565b5080925050509392505050565b5f610def8263ffffffff16610f19565b90505f610e4b610e3c60075f3373ffffffffffffffffffffffffffffffffffffffff1673ffffffffffffffffffffffffffffffffffffffff1681526020019081526020015f205484610f2b565b610e455f610f19565b84610f74565b9050610e9460075f3373ffffffffffffffffffffffffffffffffffffffff1673ffffffffffffffffffffffffffffffffffffffff1681526020019081526020015f20548261144b565b60075f3373ffffffffffffffffffffffffffffffffffffffff1673ffffffffffffffffffffffffffffffffffffffff1681526020019081526020015f2081905550610ee16009548261144b565b600981905550610ef081611494565b505050565b5f610f1183610f0c84610f07906133e3565b611276565b610d0d565b905092915050565b5f610f24825f6117ab565b9050919050565b5f610f35836117c5565b610f4557610f425f610f19565b92505b610f4e826117c5565b610f5e57610f5b5f610f19565b91505b610f6c6004848460156117d6565b905092915050565b5f610f7e846118c5565b610f8e57610f8b5f6118d6565b93505b610f97836117c5565b610fa757610fa45f610f19565b92505b610fb0826117c5565b610fc057610fbd5f610f19565b91505b610fcd60048585856118e8565b90509392505050565b5f610fe0826119d9565b9050919050565b5f73ffffffffffffffffffffffffffffffffffffffff168273ffffffffffffffffffffffffffffffffffffffff1603611057575f6040517fec442f0500000000000000000000000000000000000000000000000000000000815260040161104e91906133f5565b60405180910390fd5b6110625f8383611a6d565b5050565b5f33905090565b61107a8383836001611c86565b505050565b5f61108a8484610d21565b90507fffffffffffffffffffffffffffffffffffffffffffffffffffffffffffffffff81101561110c57818110156110fd578281836040517ffb8f41b20000000000000000000000000000000000000000000000000000000081526004016110f49392919061340e565b60405180910390fd5b61110b84848484035f611c86565b5b50505050565b5f73ffffffffffffffffffffffffffffffffffffffff168373ffffffffffffffffffffffffffffffffffffffff1603611182575f6040517f96c6fd1e00000000000000000000000000000000000000000000000000000000815260040161117991906133f5565b60405180910390fd5b5f73ffffffffffffffffffffffffffffffffffffffff168273ffffffffffffffffffffffffffffffffffffffff16036111f2575f6040517fec442f050000000000000000000000000000000000000000000000000000000081526004016111e991906133f5565b60405180910390fd5b6111fd838383611a6d565b505050565b5f61121461120e611e55565b83611f0b565b9050919050565b5f5f5f5f6112298686611f4b565b9250925092506112398282611fa0565b82935050505092915050565b60605f839050808360405160200161125e929190613443565b60405160208183030381529060405291505092915050565b5f5f600490508060ff16836040015160ff16146112d0578260400151816040517f67cf30710000000000000000000000000000000000000000000000000000000081526004016112c792919061346a565b60405180910390fd5b6112e16112dc84612102565b612144565b915050919050565b5f73ffffffffffffffffffffffffffffffffffffffff168373ffffffffffffffffffffffffffffffffffffffff1603611359575f6040517fe602df0500000000000000000000000000000000000000000000000000000000815260040161135091906133f5565b60405180910390fd5b5f73ffffffffffffffffffffffffffffffffffffffff168273ffffffffffffffffffffffffffffffffffffffff16036113c9575f6040517f94280d620000000000000000000000000000000000000000000000000000000081526004016113c091906133f5565b60405180910390fd5b8060085f8573ffffffffffffffffffffffffffffffffffffffff1673ffffffffffffffffffffffffffffffffffffffff1681526020019081526020015f205f8473ffffffffffffffffffffffffffffffffffffffff1673ffffffffffffffffffffffffffffffffffffffff1681526020019081526020015f2081905550505050565b5f611455836117c5565b611465576114625f610f19565b92505b61146e826117c5565b61147e5761147b5f610f19565b91505b61148c6004848460076117d6565b905092915050565b61149d816117c5565b6114ad576114aa5f610f19565b90505b6114b6816121db565b5050565b60606114f060057f000000000000000000000000000000000000000000000000000000000000000061226090919063ffffffff16565b905090565b606061152b60067f000000000000000000000000000000000000000000000000000000000000000061226090919063ffffffff16565b905090565b5f73ffffffffffffffffffffffffffffffffffffffff168273ffffffffffffffffffffffffffffffffffffffff16036115a0575f6040517f96c6fd1e00000000000000000000000000000000000000000000000000000000815260040161159791906133f5565b60405180910390fd5b6115ab825f83611a6d565b5050565b5f6115b9836117c5565b6115c9576115c65f610f19565b92505b6115d2826117c5565b6115e2576115df5f610f19565b91505b6115f06004848460086117d6565b905092915050565b5f5f6116048585610639565b90505f611611828561230d565b90506116278686611622858561144b565b6112e9565b80925050509392505050565b5f5f61168e61167f8460075f8973ffffffffffffffffffffffffffffffffffffffff1673ffffffffffffffffffffffffffffffffffffffff1681526020019081526020015f2054612356565b846116895f610f19565b610f74565b90506116d760075f8673ffffffffffffffffffffffffffffffffffffffff1673ffffffffffffffffffffffffffffffffffffffff1681526020019081526020015f2054826115af565b60075f8673ffffffffffffffffffffffffffffffffffffffff1673ffffffffffffffffffffffffffffffffffffffff1681526020019081526020015f208190555061175f60075f8773ffffffffffffffffffffffffffffffffffffffff1673ffffffffffffffffffffffffffffffffffffffff1681526020019081526020015f20548261144b565b60075f8773ffffffffffffffffffffffffffffffffffffffff1673ffffffffffffffffffffffffffffffffffffffff1681526020019081526020015f2081905550809150509392505050565b5f5f6117b98460048561239f565b90508091505092915050565b5f6117cf8261249a565b9050919050565b5f73020000000000000000000000000000000000008073ffffffffffffffffffffffffffffffffffffffff16631888debd868461181388886124a6565b5f67ffffffffffffffff81111561182d5761182c612d14565b5b60405190808252806020026020018201604052801561185b5781602001602082028036833780820191505090505b506040518563ffffffff1660e01b815260040161187b9493929190613504565b6020604051808303815f875af1158015611897573d5f5f3e3d5ffd5b505050506040513d601f19601f820116820180604052508101906118bb9190613569565b9050949350505050565b5f6118cf8261249a565b9050919050565b5f6118e1825f612540565b9050919050565b5f73020000000000000000000000000000000000008073ffffffffffffffffffffffffffffffffffffffff16631888debd866004611927888888612569565b5f67ffffffffffffffff81111561194157611940612d14565b5b60405190808252806020026020018201604052801561196f5781602001602082028036833780820191505090505b506040518563ffffffff1660e01b815260040161198f9493929190613504565b6020604051808303815f875af11580156119ab573d5f5f3e3d5ffd5b505050506040513d601f19601f820116820180604052508101906119cf9190613569565b9050949350505050565b5f73020000000000000000000000000000000000008073ffffffffffffffffffffffffffffffffffffffff1663f6bc7f3f836040518263ffffffff1660e01b8152600401611a279190612af5565b602060405180830381865afa158015611a42573d5f5f3e3d5ffd5b505050506040513d601f19601f82011682018060405250810190611a669190613569565b9050919050565b5f73ffffffffffffffffffffffffffffffffffffffff168373ffffffffffffffffffffffffffffffffffffffff1603611abd578060025f828254611ab191906135c1565b92505081905550611b8b565b5f5f5f8573ffffffffffffffffffffffffffffffffffffffff1673ffffffffffffffffffffffffffffffffffffffff1681526020019081526020015f2054905081811015611b46578381836040517fe450d38c000000000000000000000000000000000000000000000000000000008152600401611b3d9392919061340e565b60405180910390fd5b8181035f5f8673ffffffffffffffffffffffffffffffffffffffff1673ffffffffffffffffffffffffffffffffffffffff1681526020019081526020015f2081905550505b5f73ffffffffffffffffffffffffffffffffffffffff168273ffffffffffffffffffffffffffffffffffffffff1603611bd2578060025f8282540392505081905550611c1c565b805f5f8473ffffffffffffffffffffffffffffffffffffffff1673ffffffffffffffffffffffffffffffffffffffff1681526020019081526020015f205f82825401925050819055505b8173ffffffffffffffffffffffffffffffffffffffff168373ffffffffffffffffffffffffffffffffffffffff167fddf252ad1be2c89b69c2b068fc378daa952ba7f163c4a11628f55a4df523b3ef83604051611c799190612af5565b60405180910390a3505050565b5f73ffffffffffffffffffffffffffffffffffffffff168473ffffffffffffffffffffffffffffffffffffffff1603611cf6575f6040517fe602df05000000000000000000000000000000000000000000000000000000008152600401611ced91906133f5565b60405180910390fd5b5f73ffffffffffffffffffffffffffffffffffffffff168373ffffffffffffffffffffffffffffffffffffffff1603611d66575f6040517f94280d62000000000000000000000000000000000000000000000000000000008152600401611d5d91906133f5565b60405180910390fd5b8160015f8673ffffffffffffffffffffffffffffffffffffffff1673ffffffffffffffffffffffffffffffffffffffff1681526020019081526020015f205f8573ffffffffffffffffffffffffffffffffffffffff1673ffffffffffffffffffffffffffffffffffffffff1681526020019081526020015f20819055508015611e4f578273ffffffffffffffffffffffffffffffffffffffff168473ffffffffffffffffffffffffffffffffffffffff167f8c5be1e5ebec7d5bd14f71427d1e84f3dd0314c0f7b2291e5b200ac8c7c3b92584604051611e469190612af5565b60405180910390a35b50505050565b5f7f000000000000000000000000000000000000000000000000000000000000000073ffffffffffffffffffffffffffffffffffffffff163073ffffffffffffffffffffffffffffffffffffffff16148015611ed057507f000000000000000000000000000000000000000000000000000000000000000046145b15611efd577f00000000000000000000000000000000000000000000000000000000000000009050611f08565b611f05612625565b90505b90565b5f6040517f190100000000000000000000000000000000000000000000000000000000000081528360028201528260228201526042812091505092915050565b5f5f5f6041845103611f8b575f5f5f602087015192506040870151915060608701515f1a9050611f7d888285856126ba565b955095509550505050611f99565b5f600285515f1b9250925092505b9250925092565b5f6003811115611fb357611fb2613491565b5b826003811115611fc657611fc5613491565b5b03156120fe5760016003811115611fe057611fdf613491565b5b826003811115611ff357611ff2613491565b5b0361202a576040517ff645eedf00000000000000000000000000000000000000000000000000000000815260040160405180910390fd5b6002600381111561203e5761203d613491565b5b82600381111561205157612050613491565b5b0361209557805f1c6040517ffce698f700000000000000000000000000000000000000000000000000000000815260040161208c9190612af5565b60405180910390fd5b6003808111156120a8576120a7613491565b5b8260038111156120bb576120ba613491565b5b036120fd57806040517fd78bce0c0000000000000000000000000000000000000000000000000000000081526004016120f491906135f4565b60405180910390fd5b5b5050565b61210a6128b8565b6040518060800160405280835f01518152602001836020015160ff168152602001600460ff16815260200183606001518152509050919050565b5f73020000000000000000000000000000000000008073ffffffffffffffffffffffffffffffffffffffff166327f9c76283336040518363ffffffff1660e01b81526004016121949291906136c4565b6020604051808303815f875af11580156121b0573d5f5f3e3d5ffd5b505050506040513d601f19601f820116820180604052508101906121d49190613569565b9050919050565b5f73020000000000000000000000000000000000008073ffffffffffffffffffffffffffffffffffffffff16630828982783336040518363ffffffff1660e01b815260040161222b9291906136f2565b5f604051808303815f87803b158015612242575f5ffd5b505af1158015612254573d5f5f3e3d5ffd5b50505050819050919050565b606060ff5f1b831461227c57612275836127a1565b9050612307565b818054612288906132bf565b80601f01602080910402602001604051908101604052809291908181526020018280546122b4906132bf565b80156122ff5780601f106122d6576101008083540402835291602001916122ff565b820191905f5260205f20905b8154815290600101906020018083116122e257829003601f168201915b505050505090505b92915050565b5f612317836117c5565b612327576123245f610f19565b92505b612330826117c5565b6123405761233d5f610f19565b91505b61234e6004848460166117d6565b905092915050565b5f612360836117c5565b6123705761236d5f610f19565b92505b612379826117c5565b612389576123865f610f19565b91505b6123976004848460146117d6565b905092915050565b5f73020000000000000000000000000000000000008073ffffffffffffffffffffffffffffffffffffffff16631888debd84601a5f67ffffffffffffffff8111156123ed576123ec612d14565b5b60405190808252806020026020018201604052801561241b5781602001602082028036833780820191505090505b50612432898960ff1661242d8a612813565b612569565b6040518563ffffffff1660e01b81526004016124519493929190613504565b6020604051808303815f875af115801561246d573d5f5f3e3d5ffd5b505050506040513d601f19601f820116820180604052508101906124919190613569565b90509392505050565b5f5f8214159050919050565b60605f600267ffffffffffffffff8111156124c4576124c3612d14565b5b6040519080825280602002602001820160405280156124f25781602001602082028036833780820191505090505b50905083815f8151811061250957612508613719565b5b602002602001018181525050828160018151811061252a57612529613719565b5b6020026020010181815250508091505092915050565b5f5f5f9050831561255057600190505b5f61255c825f8661239f565b9050809250505092915050565b60605f600367ffffffffffffffff81111561258757612586612d14565b5b6040519080825280602002602001820160405280156125b55781602001602082028036833780820191505090505b50905084815f815181106125cc576125cb613719565b5b60200260200101818152505083816001815181106125ed576125ec613719565b5b602002602001018181525050828160028151811061260e5761260d613719565b5b602002602001018181525050809150509392505050565b5f7f8b73c3c69bb8fe3d512ecc4cf759cc79239f7b179b0ffacaa9a75d522b39400f7f00000000000000000000000000000000000000000000000000000000000000007f0000000000000000000000000000000000000000000000000000000000000000463060405160200161269f959493929190613746565b60405160208183030381529060405280519060200120905090565b5f5f5f7f7fffffffffffffffffffffffffffffff5d576e7357a4501ddfe92f46681b20a0845f1c11156126f6575f600385925092509250612797565b5f6001888888886040515f81526020016040526040516127199493929190613797565b6020604051602081039080840390855afa158015612739573d5f5f3e3d5ffd5b5050506020604051035190505f73ffffffffffffffffffffffffffffffffffffffff168173ffffffffffffffffffffffffffffffffffffffff160361278a575f60015f5f1b93509350935050612797565b805f5f5f1b935093509350505b9450945094915050565b60605f6127ad8361286a565b90505f602067ffffffffffffffff8111156127cb576127ca612d14565b5b6040519080825280601f01601f1916602001820160405280156127fd5781602001600182028036833780820191505090505b5090508181528360208201528092505050919050565b5f5f8260030b121561285c57816040517f8f568bf800000000000000000000000000000000000000000000000000000000815260040161285391906137f5565b60405180910390fd5b8163ffffffff169050919050565b5f5f60ff835f1c169050601f8111156128af576040517fb3512b0c00000000000000000000000000000000000000000000000000000000815260040160405180910390fd5b80915050919050565b60405180608001604052805f81526020015f60ff1681526020015f60ff168152602001606081525090565b5f81519050919050565b5f82825260208201905092915050565b8281835e5f83830152505050565b5f601f19601f8301169050919050565b5f612925826128e3565b61292f81856128ed565b935061293f8185602086016128fd565b6129488161290b565b840191505092915050565b5f6020820190508181035f83015261296b818461291b565b905092915050565b5f604051905090565b5f5ffd5b5f5ffd5b5f63ffffffff82169050919050565b61299c81612984565b81146129a6575f5ffd5b50565b5f813590506129b781612993565b92915050565b5f602082840312156129d2576129d161297c565b5b5f6129df848285016129a9565b91505092915050565b5f73ffffffffffffffffffffffffffffffffffffffff82169050919050565b5f612a11826129e8565b9050919050565b612a2181612a07565b8114612a2b575f5ffd5b50565b5f81359050612a3c81612a18565b92915050565b5f819050919050565b612a5481612a42565b8114612a5e575f5ffd5b50565b5f81359050612a6f81612a4b565b92915050565b5f5f60408385031215612a8b57612a8a61297c565b5b5f612a9885828601612a2e565b9250506020612aa985828601612a61565b9150509250929050565b5f8115159050919050565b612ac781612ab3565b82525050565b5f602082019050612ae05f830184612abe565b92915050565b612aef81612a42565b82525050565b5f602082019050612b085f830184612ae6565b92915050565b5f5f5f60608486031215612b2557612b2461297c565b5b5f612b3286828701612a2e565b9350506020612b4386828701612a2e565b9250506040612b5486828701612a61565b9150509250925092565b5f5f60408385031215612b7457612b7361297c565b5b5f612b8185828601612a2e565b9250506020612b9285828601612a2e565b9150509250929050565b5f819050919050565b5f612bbf612bba612bb584612a42565b612b9c565b612a42565b9050919050565b612bcf81612ba5565b82525050565b5f602082019050612be85f830184612bc6565b92915050565b5f60ff82169050919050565b612c0381612bee565b82525050565b5f602082019050612c1c5f830184612bfa565b92915050565b5f5ffd5b5f60408284031215612c3b57612c3a612c22565b5b81905092915050565b5f5f60408385031215612c5a57612c5961297c565b5b5f612c6785828601612a2e565b925050602083013567ffffffffffffffff811115612c8857612c87612980565b5b612c9485828601612c26565b9150509250929050565b5f81519050919050565b5f82825260208201905092915050565b5f612cc282612c9e565b612ccc8185612ca8565b9350612cdc8185602086016128fd565b612ce58161290b565b840191505092915050565b5f6020820190508181035f830152612d088184612cb8565b905092915050565b5f5ffd5b7f4e487b71000000000000000000000000000000000000000000000000000000005f52604160045260245ffd5b612d4a8261290b565b810181811067ffffffffffffffff82111715612d6957612d68612d14565b5b80604052505050565b5f612d7b612973565b9050612d878282612d41565b919050565b5f5ffd5b5f819050919050565b612da281612d90565b8114612dac575f5ffd5b50565b5f81359050612dbd81612d99565b92915050565b5f5ffd5b5f5ffd5b5f67ffffffffffffffff821115612de557612de4612d14565b5b612dee8261290b565b9050602081019050919050565b828183375f83830152505050565b5f612e1b612e1684612dcb565b612d72565b905082815260208101848484011115612e3757612e36612dc7565b5b612e42848285612dfb565b509392505050565b5f82601f830112612e5e57612e5d612dc3565b5b8135612e6e848260208601612e09565b91505092915050565b5f60408284031215612e8c57612e8b612d10565b5b612e966040612d72565b90505f612ea584828501612daf565b5f83015250602082013567ffffffffffffffff811115612ec857612ec7612d8c565b5b612ed484828501612e4a565b60208301525092915050565b5f5f60408385031215612ef657612ef561297c565b5b5f612f0385828601612a2e565b925050602083013567ffffffffffffffff811115612f2457612f23612980565b5b612f3085828601612e77565b9150509250929050565b5f60808284031215612f4f57612f4e612c22565b5b81905092915050565b5f5f60408385031215612f6e57612f6d61297c565b5b5f612f7b85828601612a2e565b925050602083013567ffffffffffffffff811115612f9c57612f9b612980565b5b612fa885828601612f3a565b9150509250929050565b5f60208284031215612fc757612fc661297c565b5b5f612fd484828501612a2e565b91505092915050565b5f7fff0000000000000000000000000000000000000000000000000000000000000082169050919050565b61301181612fdd565b82525050565b61302081612a07565b82525050565b61302f81612d90565b82525050565b5f81519050919050565b5f82825260208201905092915050565b5f819050602082019050919050565b61306781612a42565b82525050565b5f613078838361305e565b60208301905092915050565b5f602082019050919050565b5f61309a82613035565b6130a4818561303f565b93506130af8361304f565b805f5b838110156130df5781516130c6888261306d565b97506130d183613084565b9250506001810190506130b2565b5085935050505092915050565b5f60e0820190506130ff5f83018a613008565b8181036020830152613111818961291b565b90508181036040830152613125818861291b565b90506131346060830187612ae6565b6131416080830186613017565b61314e60a0830185613026565b81810360c08301526131608184613090565b905098975050505050505050565b61317781612a42565b8114613181575f5ffd5b50565b5f813590506131928161316e565b92915050565b5f5f5f606084860312156131af576131ae61297c565b5b5f6131bc86828701612a2e565b93505060206131cd86828701612a2e565b92505060406131de86828701613184565b9150509250925092565b5f5f604083850312156131fe576131fd61297c565b5b5f61320b85828601612a2e565b925050602061321c85828601613184565b9150509250929050565b5f5f5f6060848603121561323d5761323c61297c565b5b5f61324a86828701612a2e565b935050602061325b86828701612a2e565b925050604084013567ffffffffffffffff81111561327c5761327b612980565b5b61328886828701612f3a565b9150509250925092565b7f4e487b71000000000000000000000000000000000000000000000000000000005f52602260045260245ffd5b5f60028204905060018216806132d657607f821691505b6020821081036132e9576132e8613292565b5b50919050565b5f6132fa3683612e77565b9050919050565b5f6040820190506133145f830185613026565b6133216020830184613026565b9392505050565b61333181612bee565b811461333b575f5ffd5b50565b5f8135905061334c81613328565b92915050565b5f6080828403121561336757613366612d10565b5b6133716080612d72565b90505f61338084828501612a61565b5f8301525060206133938482850161333e565b60208301525060406133a78482850161333e565b604083015250606082013567ffffffffffffffff8111156133cb576133ca612d8c565b5b6133d784828501612e4a565b60608301525092915050565b5f6133ee3683613352565b9050919050565b5f6020820190506134085f830184613017565b92915050565b5f6060820190506134215f830186613017565b61342e6020830185612ae6565b61343b6040830184612ae6565b949350505050565b5f6040820190506134565f830185612ae6565b6134636020830184613026565b9392505050565b5f60408201905061347d5f830185612bfa565b61348a6020830184612bfa565b9392505050565b7f4e487b71000000000000000000000000000000000000000000000000000000005f52602160045260245ffd5b602081106134cf576134ce613491565b5b50565b5f8190506134df826134be565b919050565b5f6134ee826134d2565b9050919050565b6134fe816134e4565b82525050565b5f6080820190506135175f830187612bfa565b61352460208301866134f5565b81810360408301526135368185613090565b9050818103606083015261354a8184613090565b905095945050505050565b5f8151905061356381612a4b565b92915050565b5f6020828403121561357e5761357d61297c565b5b5f61358b84828501613555565b91505092915050565b7f4e487b71000000000000000000000000000000000000000000000000000000005f52601160045260245ffd5b5f6135cb82612a42565b91506135d683612a42565b92508282019050808211156135ee576135ed613594565b5b92915050565b5f6020820190506136075f830184613026565b92915050565b61361681612bee565b82525050565b5f82825260208201905092915050565b5f61363682612c9e565b613640818561361c565b93506136508185602086016128fd565b6136598161290b565b840191505092915050565b5f608083015f8301516136795f86018261305e565b50602083015161368c602086018261360d565b50604083015161369f604086018261360d565b50606083015184820360608601526136b7828261362c565b9150508091505092915050565b5f6040820190508181035f8301526136dc8185613664565b90506136eb6020830184613017565b9392505050565b5f6040820190506137055f830185612ae6565b6137126020830184613017565b9392505050565b7f4e487b71000000000000000000000000000000000000000000000000000000005f52603260045260245ffd5b5f60a0820190506137595f830188613026565b6137666020830187613026565b6137736040830186613026565b6137806060830185612ae6565b61378d6080830184613017565b9695505050505050565b5f6080820190506137aa5f830187613026565b6137b76020830186612bfa565b6137c46040830185613026565b6137d16060830184613026565b95945050505050565b5f8160030b9050919050565b6137ef816137da565b82525050565b5f6020820190506138085f8301846137e6565b9291505056fea2646970667358221220dbbe9f3d6f0b424d34997031cb00ad706cc7e63e7e578bf8099b2b50f28391de64736f6c634300081b0033","linkReferences":{}},"methodIdentifiers":{"_allowanceEncrypted(address,address)":"23db9354","allowance(address,address)":"dd62ed3e","allowanceEncrypted(address,(bytes32,bytes))":"5356c429","approve(address,uint256)":"095ea7b3","approveEncrypted(address,(uint256,uint8,uint8,bytes))":"63c05a33","balanceOf(address)":"70a08231","balanceOfEncrypted(address,(bytes32,bytes))":"60277204","completeUnwrap(uint32)":"095548f3","decimals()":"313ce567","eip712Domain()":"84b0196e","name()":"06fdde03","requestUnwrap(uint32)":"e83c3af7","symbol()":"95d89b41","totalSupply()":"18160ddd","transfer(address,uint256)":"a9059cbb","transferEncrypted(address,(uint256,uint8,uint8,bytes))":"fe229cbe","transferEncrypted(address,uint256)":"c4224c19","transferFrom(address,address,uint256)":"23b872dd","transferFromEncrypted(address,address,(uint256,uint8,uint8,bytes))":"e1a136d5","transferFromEncrypted(address,address,uint256)":"af575a00","unwrap(uint32)":"6e0505e1","wrap(uint32)":"9f284be7"},"id":4}